:100000000C9462000C94A4040C947D040C948A005B
:100010000C948A000C948A000C948A000C948A0038
:100020000C948A000C948A000C948A000C948A0028
:100030000C948A000C948A000C948A000C948A0018
:100040000C9433040C948A000C94F1040C94CB04AB
:100050000C948A000C948A000C948A000C948A00F8
:100060000C948A000C948A000000000024002700F1
:100070002A0000000000250028002B0000000008D6
:10008000000201000003040700000000000000005F
:10009000010204081020408001020408102001021F
:1000A000040810200000000023002600290004049A
:1000B0000404040404040202020202020303030310
:1000C0000303230511241FBECFEFD8E0DEBFCDBF51
:1000D00011E0A0E0B1E0E2EBFFE002C005900D927C
:1000E000AA34B107D9F722E0AAE4B1E001C01D9219
:1000F000A232B207E1F710E0C2E6D0E004C02197D7
:10010000FE010E94D107C136D107C9F70E94070638
:100110000C94D7070C940000833081F028F48130D0
:1001200099F08230A9F008958730A9F08830C9F09D
:100130008430B1F4809180008F7D03C08091800075
:100140008F7780938000089584B58F7784BD08955C
:1001500084B58F7DFBCF8091B0008F778093B00006
:1001600008958091B0008F7DF9CF1F93CF93DF93D7
:10017000282F30E0F901E458FF4F8491F901E0574E
:10018000FF4FD491F901E255FF4FC491CC23A9F060
:10019000162F81110E948C00EC2FF0E0EE0FFF1F54
:1001A000EE58FF4FA591B4918FB7F894EC911111CF
:1001B00008C0D095DE23DC938FBFDF91CF911F91D4
:1001C0000895DE2BF8CFCF93DF9390E0FC01E0574A
:1001D000FF4F249182559F4FFC0184918823D1F0D9
:1001E00090E0880F991FFC01E859FF4FA591B49149
:1001F000FC01EE58FF4FC591D491623071F49FB766
:10020000F8943C91822F809583238C93E8812E2B48
:1002100028839FBFDF91CF9108958FB7F894EC9119
:100220002E2B2C938FBFF6CF0895AF92BF92CF9213
:10023000DF92EF92FF920F931F93CF93DF936C01A6
:100240007B018B01040F151FEB015E01AE18BF0887
:10025000C017D10759F06991D601ED91FC91019039
:10026000F081E02DC6010995892B79F7C501DF9151
:10027000CF911F910F91FF90EF90DF90CF90BF90A3
:10028000AF900895FC01538D448D252F30E0842FCD
:1002900090E0821B930B541710F0CF9608950197AE
:1002A0000895FC01918D828D981761F0A28DAE0F9B
:1002B000BF2FB11D5D968C91928D9F5F9F73928F22
:1002C00090E008958FEF9FEF0895FC01918D828D4E
:1002D000981731F0828DE80FF11D858D90E008951B
:1002E0008FEF9FEF0895FC01918D228D892F90E073
:1002F000805C9F4F821B91098F73992708958DE52C
:1003000091E00E94730121E0892B09F420E0822F03
:10031000089580E090E0892B29F00E947F018111EF
:100320000C9400000895FC01A48DA80FB92FB11DF5
:10033000A35ABF4F2C91848D90E001968F7399271B
:10034000848FA689B7892C93A089B1898C918370F9
:1003500080648C93938D848D981306C00288F389F2
:10036000E02D80818F7D80830895EF92FF920F931F
:100370001F93CF93DF93EC0181E0888F9B8D8C8D51
:1003800098131AC0E889F989808185FF15C09FB745
:10039000F894EE89FF896083E889F9898081837008
:1003A000806480839FBF81E090E0DF91CF911F91B7
:1003B0000F91FF90EF900895F62E0B8D10E00F5FD8
:1003C0001F4F0F731127E02E8C8D8E110CC00FB6AE
:1003D00007FCFACFE889F989808185FFF5CFCE0146
:1003E0000E949301F1CFEB8DEC0FFD2FF11DE35A2D
:1003F000FF4FF0829FB7F8940B8FEA89FB898081C9
:100400008062CFCFCF93DF93EC01888D8823B9F042
:10041000AA89BB89E889F9898C9185FD03C080810F
:1004200086FD0DC00FB607FCF7CF8C9185FFF2CF8C
:10043000808185FFEDCFCE010E949301E9CFDF914E
:10044000CF910895089590E080E00895DC01ED914A
:10045000FD918081ED91FD919081ED91FD916C91E7
:1004600063708E2309F064609F2309F06860E3E401
:10047000F2E0E60FF11D659565956D936D917D91A7
:100480008D919D91099423C01AC012C016C010C04E
:100490001EC009C014C013C006C019C009C00DC0D9
:1004A00007C00DC014C062507040804090400BC027
:1004B000615070408040904006C06E5F01C06F5F29
:1004C0007F4F8F4F9F4F9E938E937E936E93089591
:1004D0008091FA019091FB010C9426028091FC011D
:1004E0009091FD010C942602CF93DF93EC0160E024
:1004F0008E810E94B50061E08E810E94B50060E0AF
:100500008E810E94B5008BE891E00197F1F7DF91B1
:10051000CF910895CF92DF92EF92FF920F931F93A6
:10052000CF93DF936C017C0187E0E80EF11CD0E0F3
:10053000C0E0062F10E0B8010C2E02C0759567953B
:100540000A94E2F76170F70181917F010E94B50082
:100550002196C430D10579F7C601DF91CF911F9163
:100560000F91FF90EF90DF90CF900C947402CF9298
:10057000DF92EF92FF920F931F93CF93DF93EC01E3
:10058000F62E642F8C810E94B5008D818F3F19F06B
:1005900060E00E94B5000F2D10E08F8584FF25C01C
:1005A0006E0187E0C80ED11CF12CE12CB8010E2C95
:1005B00002C0759567950A94E2F76170F601819122
:1005C0006F010E94B500FFEFEF1AFF0A88E0E816FE
:1005D000F10461F7CE01DF91CF911F910F91FF9050
:1005E000EF90DF90CF900C947402B80184E0759581
:1005F00067958A95E1F7CE010E948A026F2DCE01A0
:10060000DF91CF911F910F91FF90EF90DF90CF90EE
:100610000C948A0240E0682F8AE092E00C94B702C2
:10062000CF93DF93823029F49091190298609093D0
:10063000190280931D0210921E0280E480931F0213
:1006400080E18093200280E58093210261E0809127
:100650000E020E94E30080910F028F3F19F061E0CB
:100660000E94E30061E0809110020E94E300CAE072
:10067000D2E09E012A5032408091190284FD0BC0C5
:1006800084E090E021962817390744F461E08E81D8
:100690000E94E300EECF88E090E0F4CF8BE39DE092
:1006A0000197F1F760E080910E020E94B50060E0D2
:1006B000809110020E94B50080910F028F3F19F0C7
:1006C00060E00E94B5008091190284FD39C063E0AA
:1006D0008AE092E00E948A02CBE4D6E4CE01019740
:1006E000F1F763E08AE092E00E948A022197F1F735
:1006F00063E08AE092E00E948A0283E592E001973B
:10070000F1F762E08AE092E00E948A028091190289
:1007100080620E940A0384E080931A028CE00E94A7
:100720000A0381E00E940A038BE39FE10197F1F73E
:1007300082E080931B0286E0DF91CF910C940A0344
:1007400080620E940A038BE496E40197F1F780919E
:10075000190280620E940A0383E592E00197F1F793
:100760008091190280620E940A03D0CF41E00E946A
:10077000B70281E090E008958F929F92AF92BF926E
:100780000F931F93CF93DF93CDB7DEB7A1970FB62B
:10079000F894DEBF0FBECDBF19A2423008F44AE084
:1007A0008E010F5D1F4F842E912CB12CA12CA50121
:1007B00094010E94AF07E62FB901CA01EA3044F55F
:1007C000E05DD801EE938D01232B242B252B79F7A7
:1007D00090E080E0109769F0FD0101900020E9F7BA
:1007E0003197AF014A1B5B0BBD018AE092E00E948A
:1007F0001501A1960FB6F894DEBF0FBECDBFDF91F5
:10080000CF911F910F91BF90AF909F908F900895BF
:10081000E95CD7CFCF92DF92EF92FF926C01990FF4
:10082000EE08FF08F7FE16C041E06DE28AE092E0B4
:100830000E94B70266277727CB016C197D098E09C4
:100840009F094AE00E94BC030196FF90EF90DF9061
:10085000CF9008954AE0C701B601FF90EF90DF9076
:10086000CF900C94BC031F920F920FB60F921124DD
:100870002F933F938F939F93AF93BF938091590191
:1008800090915A01A0915B01B0915C0130915801A7
:1008900023E0230F2D3758F50196A11DB11D20939C
:1008A00058018093590190935A01A0935B01B09332
:1008B0005C018091540190915501A0915601B09135
:1008C00057010196A11DB11D8093540190935501CC
:1008D000A0935601B0935701BF91AF919F918F9113
:1008E0003F912F910F900FBE0F901F90189526E803
:1008F000230F0296A11DB11DD2CF1F920F920FB6EA
:100900000F9211242F933F934F935F936F937F9395
:100910008F939F93AF93BF93EF93FF93E091060163
:10092000F09107010995FF91EF91BF91AF919F91D0
:100930008F917F916F915F914F913F912F910F9088
:100940000FBE0F901F9018951F920F920FB60F9227
:1009500011242F933F934F935F936F937F938F93C4
:100960009F93AF93BF93EF93FF93E0910401F091B6
:1009700005010995FF91EF91BF91AF919F918F91E3
:100980007F916F915F914F913F912F910F900FBE8B
:100990000F901F9018951F920F920FB60F9211246F
:1009A0002F933F934F935F936F937F938F939F9377
:1009B000AF93BF93EF93FF938DE591E00E94930176
:1009C000FF91EF91BF91AF919F918F917F916F9127
:1009D0005F914F913F912F910F900FBE0F901F90FD
:1009E00018951F920F920FB60F9211242F938F9389
:1009F0009F93EF93FF93E0916D01F0916E018081E1
:100A0000E0917301F091740182FD1BC0908180918F
:100A100076018F5F8F7320917701821741F0E0910B
:100A20007601F0E0E35AFE4F958F80937601FF91B7
:100A3000EF919F918F912F910F900FBE0F901F906C
:100A400018958081F4CFCF93DF93109260011092BC
:100A50005F0188EE93E0A0E0B0E0809361019093A5
:100A60006201A0936301B09364018CE091E09093E4
:100A70005E0180935D0185EC90E090936A01809324
:100A8000690184EC90E090936C0180936B0180ECA1
:100A900090E090936E0180936D0181EC90E09093D3
:100AA000700180936F0182EC90E0909372018093CB
:100AB000710186EC90E09093740180937301109221
:100AC00076011092770110927801109279011092BC
:100AD0000D0210920C028EE191E090930B02809334
:100AE0000A028BE080930E028FEF80930F028CE05E
:100AF0008093100288E08093110289E080931202B3
:100B000084E08093130285E0809314021092150212
:100B100010921602109217021092180210921902E7
:100B200081E00E94100362E082E00E94E30062E044
:100B300083E00E94E300E0EBF0E0E491F0E0EE0FF0
:100B4000FF1FEC55FF4FA591B491B093FF01A09307
:100B5000FE01E2E9F0E0449140930202E1EBF0E0B3
:100B6000E491F0E0EE0FFF1FEC55FF4FC591D491DB
:100B7000D0930102C0930002E3E9F0E0E491E09336
:100B800003021092050210920602109207021092C0
:100B900008022BE33FE1C9010197F1F79C91842FF3
:100BA000892391E009F490E08881E82309F09260BC
:100BB0002EEF31E0909304023093FB012093FA0171
:100BC00088E692E09093050180930401809169008A
:100BD0008C7F816080936900E89A81E080930902AC
:100BE0003093FD012093FC018EE692E09093070183
:100BF0008093060180916900837F846080936900FF
:100C0000E99A82E080930902DF91CF910895789468
:100C100084B5826084BD84B5816084BD85B5826001
:100C200085BD85B5816085BD80916E0081608093B2
:100C30006E0010928100809181008260809381001B
:100C4000809181008160809381008091800081602B
:100C5000809380008091B10084608093B100809186
:100C6000B00081608093B00080917A0084608093AE
:100C70007A0080917A00826080937A0080917A0075
:100C8000816080937A0080917A00806880937A00F6
:100C90001092C10062E086E00E94E300E0916D01E5
:100CA000F0916E0182E08083E0916901F0916A0128
:100CB0001082E0916B01F0916C018FEC80831092B7
:100CC0007501E0917101F091720186E08083E091FD
:100CD0006F01F0917001808180618083E0916F01EC
:100CE000F0917001808188608083E0916F01F091C4
:100CF0007001808180688083E0916F01F0917001C4
:100D000080818F7D808382E00E9410039BE3A92E67
:100D10009FE1B92EC2E8D0E006E910E024EBE22E14
:100D200020E0F22E30E0C32E30E0D32E8091090275
:100D3000823008F0DCC0F8948EEF91E00E94260229
:100D400040910502509106026091070270910802DD
:100D500078948091000190910101A0910201B091DD
:100D6000030184179507A607B70709F467C02FB7D3
:100D7000F8948091590190915A01A0915B01B09132
:100D80005C012FBF40905001509051016090520182
:100D900070905301481659066A067B0608F04EC04B
:100DA00080914E0190914F014090000150900101BF
:100DB00060900201709003014415550566057705A2
:100DC0000CF097C0181619062CF4019790934F0158
:100DD00080934E0140930001509301016093020102
:100DE000709303012FB7F8948091590190915A01A3
:100DF000A0915B01B0915C012FBF80935001909353
:100E00005101A0935201B093530180904E019090F4
:100E10004F0184E6881691046CF480914C01909106
:100E20004D018436910534F081E00E940A03C5012A
:100E30000197F1F790924D0180924C01FE0184914F
:100E4000F8019490F7018490811077C080914E0151
:100E500090914F0190934B0180934A01E1E0809182
:100E60001D028111E0E0E195F0E0E65FFD4F84892D
:100E700080680E940A0380914E0190914F010E9468
:100E80000A04E1E080911D028111E0E0E195F0E0CB
:100E9000E65FFD4F84898C5F80680E940A03809121
:100EA0004A0190914B010E940A04E0911D02E23038
:100EB00008F053C0E150F0E0E65FFD4F84898E5F9B
:100EC00080680E940A0343E250E066E271E08AE033
:100ED00092E00E941501C114D10409F427CF0E94A9
:100EE0007F01882309F422CF0E9400001FCFF894CD
:100EF00027CF8F3791052CF4019690934F01809363
:100F00004E014093000150930101609302017093E0
:100F100003012FB7F8948091590190915A01A09143
:100F20005B01B0915C012FBF809350019093510100
:100F3000A0935201B093530181CF81110E948C0084
:100F4000E82DF0E0EE0FFF1FEC55FF4FA591B49197
:100F50008C91982209F47ACF81CFE1E0ACCFA1E265
:100F60001A2EAA1BBB1BFD010DC0AA1FBB1FEE1F23
:100F7000FF1FA217B307E407F50720F0A21BB30B6E
:100F8000E40BF50B661F771F881F991F1A9469F7EA
:100F900060957095809590959B01AC01BD01CF0146
:100FA0000895EE0FFF1F0590F491E02D0994F89439
:020FB000FFCF71
:100FB20019FCFFFF1401140100000000B501150126
:100FC2004201020273015101650100000000B603F3
:100FD2001501230222024A6F6775736C6177204AFA
:100FE20041726F736C6177204B6162656C626172F2
:0A0FF2007420546F6173746572007F
:00000001FF
