:020000040042B8
:10000000A0B044204D024200550242005702420077
:10001000590242005B0242005D0242000000000003
:100020000000000000000000000000005F0242002D
:10003000610242000000000063024200E14742000A
:100040006702420067024200670242006702420004
:1000500067024200670242006702420067024200F4
:10006000670242000000000067024200670242008F
:10007000670242006702420067024200CD49420027
:100080006702420067024200E11D4200670242002F
:1000900067024200670242006702420067024200B4
:1000A00067024200670242006702420067024200A4
:1000B0006702420067024200670242006702420094
:1000C000670242006702420067024200000000002F
:1000D0000000000000000000000000000000000020
:1000E0006702420067024200670242006702420064
:1000F00067024200E948420067024200670242008C
:100100006702420067024200670242006702420043
:100110006702420000000000000000000000000034
:1001200067024200670242005150420067024200EB
:1001300067024200000000006702420067024200BE
:1001400000F002F800F072F80AA090E8000C824477
:100150008344AAF10107DA4501D100F067F8AFF254
:10016000090EBAE80F0013F0010F18BFFB1A43F095
:100170000103184778BB000098BB00000A444FF009
:10018000000C10F8013B13F0070408BF10F8014BF6
:100190001D1108BF10F8015B641E05D010F8016B3B
:1001A000641E01F8016BF9D113F0080F1EBF10F89F
:1001B000014BAD1C0C1B09D16D1E58BF01F801CBC2
:1001C000FAD505E014F8016B01F8016B6D1EF9D545
:1001D0009142D6D37047000000230024002500265A
:1001E000103A28BF78C1FBD8520728BF30C148BF9A
:1001F0000B607047642900F07F80752900F07C80D7
:10020000782900F0B580732900F0D882002070476B
:100210001FB50BF03BFB9DE8030000F001FE00F072
:1002200017FB1FBD10B500F07CFB10BD00F0B4FB48
:100230001146FFF7EDFF09F0E3F900F0A3FD03B469
:10024000FFF7F0FF03BC00F0E1FA00000948804727
:1002500009480047FEE7FEE7FEE7FEE7FEE7FEE7A8
:10026000FEE7FEE7FEE7FEE704480549054A064BC0
:1002700070470000E947420041014200A0AA442023
:10028000A0B04420A0AC4420A0AC44200FB404494A
:1002900010B503AA029800F095FA10BC5DF814FBA3
:1002A00094A9442070B50C460546012A05D028784B
:1002B000800600D5EA69002302E0012305E05B1C0B
:1002C000934202D2E05C0028F9D1A869E618C01A6E
:1002D000A861286A184428622846AFF3008004E029
:1002E000D5E9012114F8010B9047B442F8D3284610
:1002F000AFF3008070BD00002DE9F04106460024F8
:1003000010687529314616A510D0AFF3008000287B
:1003100002DA404213A507E031688A0701D512A529
:1003200002E0490704D511A5012401E0AFF30080E4
:1003300000210A2206F1240709E0B0FBF2FCB0FB21
:10034000F2F302FB1C00303078541846491C002898
:10035000F3D123462A463046BDE8F04100F0C3B948
:10036000000000002D0000002B0000002000000015
:1003700070B504460D4621461068AFF30080218811
:10038000090502D50F4A7A4402E00E4A7A440E3239
:10039000002104F1240305E000F00F060009965D3A
:1003A0005E54491C0028F7D120780023000704D5AB
:1003B000702D02D009B1022311322046BDE87040F1
:1003C00000F091B929B900002DE9F05F8946044693
:1003D0004FF0000ADFF874B1FB44C0F820A02046BB
:1003E000E1688847002874D0252806D0D4E9012187
:1003F0009047206A401C2062F1E700265F462046B5
:10040000E16888472028054607DB312D05D2781999
:1004100010F8200C08B10643F1E7B00701D526F02B
:100420000406C4F81CA00027C4F818A02A2D09D07F
:10043000284606F057F838B304EB8708303DC8F873
:10044000185019E059F8041B204604EB870291610B
:10045000E1688847012F054618D1E069002820DAB5
:1004600026F020061DE0D8F8180000EB800005EB10
:1004700040003038C8F818002046E1688847054633
:1004800006F030F80028EED1012F0AD02E2D08D129
:100490002046E16888477F1C0546022F46F020066B
:1004A000C4DBA069002803DA404246F00106A061DF
:1004B000F00701D026F010066C2D0BD0682D09D066
:1004C0004C2D39D06A2D35D0742D35D07A2D33D0BE
:1004D00016E038E0E1682F4620468847B8420546D6
:1004E00009D16C2F26D04FF48060E1680643204686
:1004F0008847054604E06C2F1AD04FF480700643FD
:100500000DB3A5F14100192802D8203546F4006644
:100510004A462946204626604E46FFF76BFE80B1CC
:1005200001280BD0F61D26F0070000F1080956E758
:100530004020E4E78020D8E70020D6E706F1040950
:100540004DE7284652E7206ABDE8F09FFFB800005B
:100550000EB5054614460E4613A000F0E7FD2846EA
:1005600000F0E4FD16A000F0E1FD304600F0DEFDF5
:1005700015A000F0DBFD00218DF80B100A210DF114
:100580000A008DF80A1008E094FBF1F201FB124218
:1005900094FBF1F4303200F8012D002CF4DC00F073
:1005A000C5FD00F021F900002A2A2A206173736535
:1005B0007274696F6E206661696C65643A20000030
:1005C0002C2066696C6520002C206C696E6520000B
:1005D00040EA010310B59B070FD1042A0DD310C8C0
:1005E00008C9121F9C42F8D020BA19BA884201D912
:1005F000012010BD4FF0FF3010BD1AB1D30703D05A
:10060000521C07E0002010BD10F8013B11F8014B0F
:100610001B1B07D110F8013B11F8014B1B1B01D12B
:10062000921EF1D1184610BD4FF0000200B51346DE
:1006300094469646203922BFA0E80C50A0E80C5002
:10064000B1F12001BFF4F7AF090728BFA0E80C50B3
:1006500048BF0CC05DF804EB890028BF40F8042BAC
:1006600008BF704748BF20F8022B11F0804F18BF19
:1006700000F8012B704700004FF0013C50F8042BAC
:1006800051F8043B9A4215D1A2EB0C03934313EAB1
:10069000CC130BD150F8042B51F8043B9A4209D1EA
:1006A000A2EB0C03934313EACC13E7D04FF0000006
:1006B000704700BFD01A01BAB1FA81F101F01801F8
:1006C00022FA01F0CB40C1F12001DBB2C0B2C01A66
:1006D0002CFA01F3D11A914311EAC311E6D1704704
:1006E0007047704770472DE9F0470D46994692468E
:1006F000044600F124080168880604D5E06921F069
:100700001001216000E00120A84201DD471B00E04C
:100710000027A1697A1902EB0900081AA061207864
:10072000C00602D42046AFF30080002608E0D4E9DA
:1007300001211AF806009047206A401C761C2062AE
:100740004E45F4DB2078C0060AD52046AFF3008082
:1007500006E0D4E9012130209047206A401C206245
:10076000381EA7F10107F4DC07E0D4E9012118F8ED
:1007700005009047206A401C2062281EA5F1010553
:10078000F3DC2046AFF300802078000602D502207B
:10079000BDE8F0870120FBE710B5436913B1AFF363
:1007A000008001E0FFF77EFD012010BD127800F10E
:1007B00024010A7000224A700122EDE711684FF00F
:1007C000FF32E9E7074B70B50D467B4400F029F88E
:1007D0000446284600F038F810B14FF0FF3070BDE5
:1007E000204670BD7F78000010B5002000F0CCF8E6
:1007F000FFF718FDBDE81040012000F007B808B56C
:1008000069468DF800000320ABBE08BD01491820E1
:10081000ABBEFEE72600020001694A1C02610878AF
:10082000704700B58FB0CDE9013100210591054930
:100830007944CDE9031011466846FFF7C5FD0FB0B6
:1008400000BD0000E5FFFFFF007B00F08000704767
:1008500010B542485421FFF7E7FE41485421FFF705
:10086000E3FE40485421FFF7DFFE3F493B483C4A46
:100870003F4B08603D490A603A491960531C0365C3
:10088000481C1065012008653B48344A39A178446A
:1008900000F0DCF920B9384878440A3800F098FABA
:1008A00037482F4A35A1784400F0D0F920B93448B0
:1008B00078440A3800F08CFA32482A4A2FA178444A
:1008C00000F0C4F920B92F4878440A3800F080FAC3
:1008D00040232248DC000021224600F094F920B198
:1008E00025487844543800F073FA1D4822464023C6
:1008F000002100F088F920B121487844543800F0F4
:1009000067FA184822461023002100F07CF90028DD
:1009100006D01C487844BDE81040563800F058BA5C
:1009200010BD104870B5006D20F001040B4800F0B8
:1009300003FA0B4800F000FA0A4800F0FDF909E05C
:10094000206D20F00105204600F0F6F9204600F069
:1009500048F82C46002CF3D170BD000040A944207B
:1009600094A94420E8A94420B8024020BC024020B9
:10097000C0024020720000000AB4000077000000AE
:10098000F9B30000E9B3000010B500F009FABDE8C2
:10099000104000F000BA7047754600F021FAAE46EC
:1009A00005006946534620F00700854618B020B57B
:1009B000FFF75AFCBDE820404FF000064FF000075B
:1009C0004FF000084FF0000B21F00701AC46ACE8F7
:1009D000C009ACE8C009ACE8C009ACE8C0098D4664
:1009E000704770B50446051F00F0FEF90068002C42
:1009F00014BF446870BD002C18BFAC423CBF2046F9
:100A00006468F8D301680A18AA4218BF456003D188
:100A10002A6805461144016028684119A1421CBF9B
:100A20006C6070BD6168696021680844286070BDB1
:100A30002DE9F04705460C46C86820F4201040F424
:100A40008000C860800602D5084600F01AFBE06806
:100A500041F282014FF0FF390140022903D02046C4
:100A600000F0B8FAB5E000F42041B1F5004F0FD125
:100A7000C00306D56168E06A884200D80846606015
:100A800006E02069E0626060606905F045FDA061F4
:100A9000A0680022EEB200280DDAE1688B050AD4C6
:100AA000C043A06041F490302260E0606068411C67
:100AB00061600670A5E0E0689046226040F4005056
:100AC000E060206968BB606905F038FD012704F12A
:100AD0002405A0B1A08910F4407F08D0E06900F09F
:100AE000CEF9206118B1E06840F4006016E0E761DB
:100AF0002561E06820F4407040F480600EE0E06919
:100B000000F0BDF900282061F1D0E06840F40060F9
:100B100010F4407FE06002D140F48070E060206912
:100B20006060E06825696FF0010AC1051FD5616842
:100B3000E06A884200D80846411B04D02246284675
:100B400000F052FAF0BBE068010203D5E562C4E9A7
:100B5000015854E0691CE1626160E16940F4803051
:100B6000491EC4E9021030462E70BDE8F08701022C
:100B700002D500F480320AE06068411C61600670B2
:100B8000E0680A2E40F48030E06006D00022E16A7E
:100B90006068814203D90B4602E00122F7E7034671
:100BA000A7895B1B7F0503D4E7699F4200DDE2B1A3
:100BB000814200D80146E5620F1AC4E90158002BB2
:100BC00009DD00E005E022461946284600F00CFA4F
:100BD00008B14846C9E747B1A069E5626560C01B36
:100BE000A061E06840F01000E060E068000208D515
:100BF0006168A069E562491B08446560A0615046D0
:100C0000B3E73046B1E770B5C468A50713D06502F5
:100C100011D4B2F5807F09D0B2F5007F06D0B2F5CD
:100C2000806F08D1012300F1240106E05D1E6FF002
:100C30007F46B54201D3012070BD0161C3614160AF
:100C400024F470611143C160002070BD2DE9F041B2
:100C50000C4607461646104600F06EF82078611CD8
:100C600061280AD0722802D077283CD102E0012501
:100C7000002405E00225042402E0082448F20205CD
:100C800011F8010B2B2806D0622809D011F8010CAD
:100C900074280AD00BE045F0030544F00204EFE7A6
:100CA00045F0040544F00104EAE744F01004384636
:100CB000214605F055FC411C15D0002131617160C1
:100CC0004FF40071F560F1617061200704D5304682
:100CD0000222002100F002F9306D40F00100306581
:100CE0003046BDE8F0810020FBE72DE9F0410D46DC
:100CF0000646104C206DC10704D0410804D020F0F6
:100D00000104F7E722460EE0542000F0B8F807008F
:100D10000ED0206D47F0010108435421206538466C
:100D2000FFF782FC3A4629463046BDE8F0418DE7A0
:100D30000020D6E740A944202DE9F04704464FF0B3
:100D400000094FF0FF37C568D4E90486A80707D02B
:100D5000204600F073F9304605F0CBFB002802DA9C
:100D60003846BDE8F087280502D54046FFF739FE32
:100D70004C212046FFF758FC206D20F00100206533
:100D80004846EEE710B50446AFF300802046BDE8C4
:100D90001040FFF754BA002801D0FFF737BD704765
:100DA00010B5002102A000F08DF9012010BD000057
:100DB000534947414252543A2041626E6F726D610D
:100DC0006C207465726D696E6174696F6E000000ED
:100DD00010B500F091F9BDE81040FFF7DCBF00004E
:100DE000004870473CAA44200048704744AA442069
:100DF000704770477047704738B504460A46002070
:100E00006946AFF30080002808BF38BD024600994C
:100E1000204600F09EF9012038BD012000F018BAEC
:100E2000F8B5AFF30080054600200C46102000BF47
:100E30000646A819A0420DD9324669460020AFF3F4
:100E40000080070008BF00F003FA0098A04218BF16
:100E50000546C419FFF7C8FF05600746F01D20F0DE
:100E600007004619284600F06DF9B44208BFF8BDE6
:100E7000A21B31463868BDE8F84000F06AB970B589
:100E80000646FFF7B1FF056806F10B0020F00704E6
:100E9000B4429CBF002070BD2B466A68BAB110688E
:100EA000A04210D304F1080188423CBF506858604A
:100EB00007D35168101941601168091B016058601F
:100EC0001460101D70BD13465268002AE7D12146F8
:100ED0002846FFF791FF0028DED170BD2DE9F041D3
:100EE000044616460D464769007B80072ED03846DB
:100EF00005F024FB50BB3EB3012E02D0022E25D1BB
:100F000004E0204600F083F905441DE0384605F072
:100F100003FBE168002841F01001E16005DA20469A
:100F200000F058F80120BDE8F081C9030BD56268D4
:100F3000E16A914200D81146A26911442269891AD6
:100F4000814200DD08460544002D01DA0220EAE76F
:100F5000E16A6068E268814206D29103E06203D5EB
:100F600022F4003141F01002A6690027AE4213DCE2
:100F7000E16A814201D90B4600E0034603EB060C0F
:100F80002369ACEB030CAC4506DD814201D98C46EC
:100F900000E084469C4505D1A760276042F0200010
:100FA000A5620DE0AD1BE669AE1B8142A66000D9CB
:100FB0000846C01A281A20605819606022F02000E4
:100FC00003490840E060002084F84870ABE7000067
:100FD000BFCFD7FFC16821F4001141F08001C1608B
:100FE00000218160016070472DE9F0478146144679
:100FF0000E464FF0FF383248D5685769054209D090
:101000003846A16905F0E0FA002811DB2C48C043FE
:101010000540E5602B4632464946384605F0EAFA77
:10102000A16920F00042B21A11440028A16103D046
:101030002046FFF7CFFF4046BDE8F08770B5044675
:101040000569C06A6168884200D80846E16821F4F1
:101050002011E160C90312D5A84208D02246411BE5
:101060002846FFF7C1FF10B14FF0FF3070BD0020E0
:10107000E562C4E90150E06820F48030E0600020BF
:1010800070BD10B50446C06820F02000E060A16A81
:10109000A06988420DD02046FFF7D0FFE06820F419
:1010A000405040F01000E060A06AA0612069E0625A
:1010B000606044F24001E0688843E06010BD0000D9
:1010C0001000020070B505460C460A2000E06D1CB9
:1010D000FFF795FB35B128780028F8D102E0641CB1
:1010E000FFF78DFB14B120780028F8D1BDE87040DF
:1010F0000A20FFF784BB000010B5014602A0FFF7ED
:10110000E1FF012010BD00005349475254524544AD
:101110003A2052656469726563743A2063616E2790
:1011200074206F70656E3A200000000010B504490D
:1011300000F05CF8BDE81040014800F040B8000045
:10114000E8A9442000210160C0E901107047102087
:101150007047034640688C46002818BF88423CBF51
:1011600003464068F8D318681844884207D00CF149
:10117000030020F00700001D411A521A0146081D05
:101180000A60FFF72EBC000070B50446C0688107F6
:1011900013D0800601D5A56A04E0A16960680844FF
:1011A0002169451A2046FFF749FF002206462946D5
:1011B0002046FFF793FE304670BD002070BD70B52D
:1011C00010B1BDE87040DFE70025074C6E1E07E058
:1011D0002046FFF7D9FF00B13546206D20F001040D
:1011E000002CF5D1284670BD40A9442070B50D46AD
:1011F000044604E0294606F029FF401C04D014F8F8
:10120000010B0028F6D170BD4FF0FF3070BD10B556
:101210000146C268900703D0900607D5886A0AE0A5
:1012200000F01EF801210160881E10BD8B6948681E
:1012300018440B69C01A91F848301BB191F8491055
:10124000401A10BD1103FCD50028FADD401E10BD68
:1012500010B500F009F8BDE81040FFF79CBD000094
:10126000004870473CAA442010B5012805D0002151
:1012700003A0FFF727FF012010BD09A1F8E7000038
:1012800053494752544D454D3A204F7574206F666F
:101290002068656170206D656D6F727900000000D7
:1012A0003A2048656170206D656D6F727920636FBB
:1012B000727275707465640070B504460D462846F8
:1012C00001F088FD012020600020606070BDC0F842
:1012D0009410704770B503460C46B2FBF4F0451EFF
:1012E0004FF47F4000EA052109B9002070BD58681D
:1012F00020F47F4001435960681CB2FBF0F0024EBD
:10130000306030460068F1E7B402402010B5014675
:101310004FF4801200230F4C636023465A605963D8
:1013200000BF0C4B1B6A03F00403042BF9D10A4ADB
:101330000023084C636023465A600323236000BFE8
:10134000044B1B6A03F00203022BF9D1014B1B6B08
:10135000D8B210BD008001400010100010B50E4A38
:1013600000230E4C636023465A6002460023E3606C
:101370002346DA6059630223236000BF074B1B6AD0
:1013800003F00403042BF9D100BF044B1B6A03F0E4
:101390000103002BF9D010BD0001100000800140B6
:1013A0002DE9F04105460E46B5F8A012284600F09A
:1013B00065FC044634B1214606A0FEF767FF2046CF
:1013C000BDE8F0813146284602F0B0FA07463846BB
:1013D000F6E700002D452D2041636D6431332E6307
:1013E0006D6435353A25640A0D000000F8B50746EE
:1013F0000D46164600BF0021384600F03FFC04466B
:101400002CB1214611A0FEF741FF2046F8BD15483A
:1014100000901DB1009840F0804000906946384629
:1014200002F0A2FA04462CB121460FA0FEF72EFFCF
:101430002046EBE70098C0F380703070009800F011
:101440000040B0F1004FD6D10020DFE72D452D2020
:1014500041636D6434312E636D6435353A25640A19
:101460000D0000000080FF002D452D2041636D64BC
:1014700034312E636D6434313A25640A0D00000066
:101480002DE9F04105460E46B5F8A012284600F0B9
:10149000F5FB044634B1214608A0FEF7F7FE2046CE
:1014A000BDE8F081042E01D1022000E000200746B3
:1014B00000223946284602F070FAF1E72D452D202A
:1014C00041636D64362E636D6435353A25640A0DCB
:1014D000000000002DE9F34F8BB08346F048007800
:1014E00010B10DB0BDE8F08F0120ED4908700C9DE2
:1014F000D846EC480078B8B10020EA4908700027C7
:101500000EE007EB4700E84911F82000022805D15A
:10151000012007EB4701E44A02F82100781CC7B21A
:10152000E24800788742ECDB00241CE0E04850F8F9
:101530002400C0010590DF4931F8241005980844C3
:101540000590BDF8160000B206A921F8140006A8FF
:1015500030F91420D84800EB8420811C002005F0CD
:10156000F7F8601CC4B2082CE0DB002741E007EB71
:101570004700CD4911F82000012838D107EB47007A
:1015800001EB80008078082831DA07EB47000B4632
:1015900003EB8000807806AB33F9102007EB47009F
:1015A0000B4603EB80008078C34B03EB8020811C4B
:1015B000384606F07DFD82460AF1010030B903206D
:1015C00007EB4701B84A02F8210010E007EB47009B
:1015D000B54901EB8000807806A931F9100050452B
:1015E00005D0032007EB4701AF4A02F82100781C21
:1015F000C7B2AE4800788742B9DB002490E04FF0D4
:101600000009AE4800EB44200A90002649E0A948B2
:1016100050F82400A64951F824100844A54941F87F
:101620002400084600EB84004088002815DD0846A9
:1016300000EB8400408848441FFA80F99E4800EB84
:101640008421A9F1010031F810009D4921F814000E
:101650000020984901EB84014880974800EB8420E2
:1016600030F91900964931F91410D0FA11F000B28E
:101670000490904830F824004110049811FB00F0C9
:1016800020F3CF3004908E4830F91410049891FA6A
:1016900010F001B20A9801800A98801C0A90701C10
:1016A00086B2802EB3DB844800EB842030F819002A
:1016B000814901EB842108808248005D8249095DEF
:1016C000884211D180207D4A02EB44237E4A00905B
:1016D000125DDFF8F8C13CF91210784A02EB4420A1
:1016E000042205F004FA19E08021744800EB44203C
:1016F000744BCDE900011B5DDFF8D0C13CF913202C
:10170000714B1B5D3CF913106C4B03EB442004231D
:1017100005F036F86B48005D6B490855601CC4B293
:10172000082CFFF66CAF6A48007800285DDD0026C3
:1017300015E058F8040B0390BDF80E0000B265499F
:1017400021F8160058F8040B0390BDF80E0001B202
:10175000614820F8161008F11808701C86B2802E17
:10176000E7DB5B48007800F0010058B18023534A62
:101770005849104604F0A8FF8023584A564910469D
:1017800004F0A2FF5248007800F0020058B1802314
:10179000534A5049104604F097FF8023514A4E495E
:1017A000104604F091FF4A48007800F0040058B158
:1017B00080234D4A4749104604F086FF80234B4A58
:1017C0004549104604F080FF4148007800F00800C9
:1017D00058B18023464A3F49104604F075FF8023E4
:1017E000444A3D49104604F06FFF002651E00020B6
:1017F0000390324830F8160080B2ADF80E0003981E
:1018000001C500200390354830F8160080B2ADF8CD
:101810000E00039801C500200390314830F81600EF
:1018200080B2ADF80E00039801C5002003902D484A
:1018300030F8160080B2ADF80E00039801C5002004
:101840000390294830F8160080B2ADF80E000398D6
:1018500001C500200390254830F8160080B2ADF88D
:101860000E00039801C500200390214830F81600AF
:1018700080B2ADF80E00039801C5002003901D480A
:1018800030F8160080B2ADF80E00039801C5701C48
:1018900086B2802EABDB00200149087000BF20E635
:1018A0008D0040208E004020C402402024004020B3
:1018B000604D4020804D4020C04D4020C06D4020F4
:1018C000A04D4020970040208F004020A0004020E5
:1018D0002F004020C07D4020C07F4020C06F4020AE
:1018E000C0714020C0734020C0754020C0774020A8
:1018F000C0794020C07B4020F8B507460D4607F56B
:101900001C74204604F0ABFC124800904FF4997010
:1019100020830120A07600986061C4F810D00022D6
:101920001146384604F0E0FC06460EB13046F8BDDC
:10193000009800F0004058B100202870009800F096
:10194000C040B0F1804F01D1012028700020EEE7A7
:101950000820ECE70080FF402DE9F04105460E46E7
:1019600005F51C74204604F07AFC0C20A07640F2A9
:101970001E402083266100221146284604F0B4FC54
:1019800007463846BDE8F0812DE9F04105460E4690
:1019900005F51C74204604F062FC0D20A076122090
:1019A0002083B5F8A0020004606126610022114680
:1019B000284604F099FC07463846BDE8F0812DE939
:1019C000F04705460E4690461F4605F51C74204616
:1019D00004F045FC162020830E20A0762761A4F891
:1019E0000C800120E081A66000221146284604F008
:1019F0007BFC81464846BDE8F0872DE9F04105466D
:101A00000E4605F51C74204604F029FC12202083A4
:101A10001020A076666100221146284604F064FC7E
:101A200007463846BDE8F0812DE9F04705460E46E9
:101A300017469846DDF8209005F51C74204604F002
:101A40000EFC162020831120A0766761C4F8108058
:101A5000B5F89602A0810120E081A660C4F800904C
:101A600000221146284604F03FFC82465046BDE85D
:101A7000F0872DE9F05F05460E4617469846DDE9EA
:101A80000A9A05F51C74204604F0E9FB1620208311
:101A90001220A076C4F81480C4F81090B5F896020D
:101AA000A081E681A760C4F800A000221146284664
:101AB00004F01AFC83465846BDE8F09F2DE9F04734
:101AC00005460E4690461F4605F51C74204604F058
:101AD000C6FB1A2020831320A0762761A4F80C806F
:101AE0000120E081A66000221146284604F0FCFB9C
:101AF00081464846BDE8F0872DE9F04705460E4689
:101B00001746984605F51C74204604F0A8FB1220E1
:101B100020831720A0760020E08147EAC67060612C
:101B2000C4F8108000221146284604F0DDFB8146EF
:101B30004846BDE8F0872DE9F05F05460E4617469A
:101B40009846DDE90A9A05F51C74204604F087FBE7
:101B50001A2020831920A076C4F81480C4F81090AD
:101B6000B5F89602A081E681A760C4F800A0002223
:101B70001146284604F0B8FB83465846BDE8F09F5E
:101B8000F8B5044604F51C75284604F068FB4FF4CC
:101B9000B17028830320A876C5F810D094F8A2026B
:101BA000042803D094F8A202052812D1B4F8A002A8
:101BB000401C87B20FB9781C87B2380468610022D4
:101BC0001146204604F090FB06460EB9A4F8A07218
:101BD0000AE000221146204604F086FB06461EB9A4
:101BE0000098000CA4F8A0023046F8BD2DE9F041A1
:101BF00006460D4606F51C74204604F030FB4FF4F3
:101C0000A17020830520A0762868606125610022EC
:101C10001146304604F068FB07463846BDE8F081BF
:101C20002DE9F84F0746884691469A46DDE90AB401
:101C3000254607F51C76286868F3DF702860286859
:101C400069F31E70286028686AF3DB6028602868E2
:101C50006BF359202860304604F001FB522030839A
:101C60003420B07620687061346100221146384615
:101C700004F03AFB00900098BDE8F88FF8B50646EE
:101C80000D4606F51C74204604F0E9FA3720A076CC
:101C90000DB1002001E04FF4807040F0120020836D
:101CA00028046061C4F810D000221146304604F0C8
:101CB0001BFB07463846F8BD2DE9F04106460D46A8
:101CC00006F51C74204604F0CAFA0DB1012000E0AC
:101CD000002000F00700022141EA001020830720C5
:101CE000A0762804606100221146304604F0FCFA18
:101CF00007463846BDE8F08170B5054605F51C7409
:101D0000204604F0ACFA222020830920A076B5F802
:101D1000A0020004606105F51870206100221146E0
:101D2000284604F0E1FA0646304670BD044A1168C0
:101D300000BF034A1268521A8242FAD37047000069
:101D40003000402001B502E00098401E009000984D
:101D50000028F9D108BD41657047C16170478160B5
:101D600070474160704742EA014383617047022136
:101D70000160704781647047F0B544688B1E01F0C4
:101D8000010616B14FF4803600E0002635465B08A8
:101D9000E60AF602DFB23E434FF4E06707EA0227A5
:101DA0003E432E434660F0BD01210160704721B1E2
:101DB000026D42F48072026503E0026D22F48072CB
:101DC00002657047416470470146C86C7047014620
:101DD000486870470146086A70470146086C7047BA
:101DE00010B501F03FF9024800F06EF810BD000098
:101DF000EC05402021B1426D42F48072426503E05F
:101E0000426D22F48072426570470146486DC0F30E
:101E100000207047F0B581B147688268C368C46923
:101E2000056D466D4FF0800CC0F800C047608260C1
:101E3000C360C4610565466501E080220260F0BDB3
:101E40000A46C36823F0C001012A04D0042A04D042
:101E5000082A0AD105E0C16007E041F08003C360B1
:101E600003E041F0C003C36000BF00BF7047000043
:101E70000A49096801F0010171B10849803909680E
:101E800001F0010141B100BF4FF060410968002934
:101E9000FAD04FF06042107070470000800E00E0F2
:101EA00010B50446E07F08B90A2010BDE07F022883
:101EB00007D10121204600F0EFFB0B21204603F063
:101EC0008FFF0020F1E700002DE9F0470446D4F829
:101ED00000A0A56804B105E040F2D7225DA166A08C
:101EE000FEF736FB206800B105E04FF4367259A1C9
:101EF00063A0FEF72DFB35B9E07F022801DB01204E
:101F0000E077BDE8F0875046FFF767FF814650460F
:101F1000FFF75AFF5E4908600846006809EA0006B4
:101F20005C48304048B106F4801008B10320E876E0
:101F3000A87E0C2801D00320E07755480068554959
:101F4000C94308405249086006F0010048B1012128
:101F50005046FFF70FFF4E48006820F001004C4943
:101F6000086006F0200048B120215046FFF702FF2C
:101F70004748006820F020004549086006F004004A
:101F800028B14348006820F004004149086006F089
:101F9000806050B14FF080615046FFF7EBFE3C4847
:101FA000006820F080603A49086006F0006050B197
:101FB0004FF000615046FFF7DDFE3548006820F025
:101FC0000060334908603248006810B1E07F0328A0
:101FD0003ED1E07F032804D10121204600F05CFBC4
:101FE0002AE00020E876286930B3287EC0F302108A
:101FF00008280ED2DFE800F00D040B0506070809DB
:1020000000BF00BF00BF00BF00BF012703E00427DF
:1020100001E0002700BF00BF4FF0000809E0504674
:10202000FFF7D8FE296941F8280008F1010000F007
:10203000FF08B845F3DB00BF5046FFF7C5FE074673
:1020400039465046FFF796FEE97E204603F0C8FE6B
:1020500000BF56E72E2E5C53414D5C6C696263688D
:1020600069705C736F757263655C6D6369645F64EE
:102070006D612E6300000000704D63696400000014
:10208000704D6369642D3E704D63694877000000B0
:10209000A80240200000FFE02DE9F04105460E4671
:1020A00014462F6805B105E04FF4617229A132A0F2
:1020B000FEF74EFA286800B105E040F2853225A10E
:1020C0002FA0FEF745FA112E26D007DC7EB1012E97
:1020D00016D0022E1CD0032E37D114E0122E2BD096
:1020E000132E20D0222E2CD0232E2ED12AE02846AB
:1020F00000F0C0F808B9012000E00020206026E0D0
:102100000C20BDE8F081284600F038F90020F8E7FF
:102110002846FFF7C5FEF4E7EA682846216800F084
:10212000F3FA206013E021783846FFF763FE384663
:10213000FFF76BFE20600AE021783846FFF780FE4B
:1021400005E004E00120206001E00C20D9E700BF99
:102150000020D6E72E2E5C53414D5C6C69626368AB
:1021600069705C736F757263655C6D6369645F64ED
:102170006D612E6300000000704D63696400000013
:10218000704D6369642D3E704D63694877000000AF
:102190002DE9F04704460D4616461F46DDE9089A2C
:1021A00004B105E04FF4ED7224A12DA0FEF7D0F9A3
:1021B00005B105E040F2DB1220A12BA0FEF7C8F923
:1021C00025600020A060C4F804904FF6FF702061E5
:1021D00000206061E760267784F81DA0E077304634
:1021E00004F030F800212846FFF714FE2846FFF7D8
:1021F000BEFD4FF0FF312846FFF7BCFD7F2128468A
:10220000FFF7ADFD7F212846FFF7A7FD1848B7FB74
:10221000F0F0401E1FFA80F848F4E0612846FFF70E
:10222000A0FD2846FFF7C0FD11212846FFF793FDCA
:1022300001212846FFF7BBFDBDE8F0872E2E5C5339
:10224000414D5C6C6962636869705C736F75726341
:10225000655C6D6369645F646D612E6300000000FE
:10226000704D636964000000704D636900000000F8
:1022700000350C0070B50446A568607F10B120469B
:10228000FFF722FEE07F022801D1002070BD0DB1D2
:102290000020FBE70120F9E72DE9F04104460D4657
:1022A000266804B105E040F2072210A118A0FEF74D
:1022B0004FF9206800B105E04FF402720BA116A09F
:1022C000FEF746F9002D02DD0920BDE8F081E07F30
:1022D000012801DB0120F8E70120E077F06820F019
:1022E000030747EA0500F0600020EEE72E2E5C535E
:1022F000414D5C6C6962636869705C736F75726391
:10230000655C6D6369645F646D612E63000000004D
:10231000704D636964000000704D6369642D3E7008
:102320004D6369487700000010B5044604B105E02C
:1023300040F21B2206A10FA0FEF70AF9E07F022857
:1023400001DB022010BD0020E07700BFFAE70000AB
:102350002E2E5C53414D5C6C6962636869705C73DE
:102360006F757263655C6D6369645F646D612E6334
:1023700000000000704D63696400000070B5044601
:1023800025682046FFF78CFD2846FFF7F0FC28461D
:10239000FFF71DFDC0F30A0631462846FFF7E1FCB2
:1023A000002211462846FFF7DEFC0121204600F0FE
:1023B00073F9E07F022803D10B21204603F010FDC2
:1023C00070BD00002DE9F04780468A46D8F800909D
:1023D0005446B8F1000F00D005E040F22E2299A13A
:1023E000A1A0FEF7B5F8D8F8000000B105E040F272
:1023F0002F2294A19EA0FEF7ABF804B105E04FF4A4
:102400000C7290A19EA0FEF7A3F84046FFF732FFA2
:1024100010B90220BDE8F087022088F81F00C8F834
:1024200008404846FFF7A3FC4846FFF7D0FC20F4DD
:102430006057208B012806D139464846FFF791FCAA
:102440004FF0006574E0207EC0F38100032805D1C1
:1024500039464846FFF785FC8B4D69E0207E00F049
:102460007200022808D1884D207EC0F30210032894
:102470005ED125F480255BE0E08908B1A06858B9F9
:1024800047F4C0514846FFF76CFCE289A1894846F1
:10249000FFF769FC7D4D4BE0207EC0F3400020B18A
:1024A000E289A1894846FFF75EFCA08908B90120AE
:1024B000A081207B00F0030008B147F4005747F4E7
:1024C000C0514846FFF74DFC207EC0F38100022832
:1024D00017D10021404603F087FE28B10221404673
:1024E00003F07EFC022095E707F4005100224046ED
:1024F00003F0F0FC664DE089012819DD45F08065A8
:1025000016E00121404603F06FFE28B1022140464B
:1025100003F066FC02207DE707F4005101224046EB
:1025200003F0D8FC5A4DE089012801DD45F08065B3
:102530004846FFF739FC207E00F00300002873D0E6
:10254000A67E207E00F0010008B146F41066208BC4
:10255000C0F3002008B146F40066207EC0F34000BE
:1025600008B146F48056207EC0F3810001281BD0BC
:10257000022802D0032835D131E0208BC0F340205F
:1025800048B1A089012802D14FF4041001E04FF4B2
:102590002410064307E0E089012801D1000401E08E
:1025A0004FF4102006431DE0208BC0F3402058B1AB
:1025B000A089012802D14FF4041001E04FF4241047
:1025C00040F48020064309E0E089012801D100049D
:1025D00001E04FF4102040F48020064302E046F46E
:1025E000003600BF00BF207EC0F30210082812D2C0
:1025F000DFE800F011080E0405090A0B00BF25F4FE
:10260000802500BF00BF00BF00BF46F0400605E0C8
:1026100046F0800602E025F4801500BF00BF606927
:10262000C9F81000C9F81460207EC0F381000328A7
:1026300001D11848054029464846FFF7C3FB002052
:10264000E8E600002E2E5C53414D5C6C69626368C5
:1026500069705C736F757263655C6D6369645F64F8
:102660006D612E6300000000704D6369640000001E
:10267000704D6369642D3E704D63694877000000BA
:1026800070436D640000000000009F0801009F007F
:10269000000060C8FFFF9F3F70B504460D462668E6
:1026A00004B105E040F2851208A111A0FDF750FF2A
:1026B000206800B105E04FF4C37204A10EA0FDF73D
:1026C00047FF29463046FFF7A5FB70BD2E2E5C5311
:1026D000414D5C6C6962636869705C736F757263AD
:1026E000655C6D6369645F646D612E63000000006A
:1026F000704D636900000000704D63692D3E704DA0
:1027000063694877000000002DE9F04107460C4658
:102710001546D7F8008007B105E040F2971211A1E5
:1027200019A0FDF715FFB8F1000F00D005E04FF438
:10273000CC720CA116A0FDF70BFFB5FBF4F004FB67
:10274000105010B9B5FBF4F602E02819B0FBF4F60E
:10275000B5FBF6F4072231464046FFF70DFB204655
:10276000BDE8F0812E2E5C53414D5C6C696263685C
:1027700069705C736F757263655C6D6369645F64D7
:102780006D612E6300000000704D63690000000061
:10279000704D6369487700002DE9F04707460C4605
:1027A000904607F51C7507B105E040F2B32215A16C
:1027B0001FA0FDF7CDFE04B105E04FF42D7211A16D
:1027C0001CA0FDF7C5FE284603F049FD264606205D
:1027D000A8761220288330780006717840EA0140FC
:1027E000B17840EA0120F17808436861C5F81080AB
:1027F00000221146384603F077FD81464846BDE881
:10280000F08700002E2E5C53414D5C6C696273743E
:102810006F726167656D656469615C736F75726322
:10282000655C73646D6D635C73646D6D632E6300D2
:102830007053640070537769746368417267000075
:102840002DE9F04105460E4605F51C74204603F0BF
:1028500006FD0820A076162020834FF40070A0818A
:102860000120E081A66000221146284603F03CFDCD
:1028700007463846BDE8F08170B504460321D4F818
:10288000600201EA9070022810D3D4F86002C0F30D
:10289000836004280AD304F120012046FFF7D0FF0B
:1028A00005461DB1294602A0FDF7F0FC70BD0000F1
:1028B0002D452D204D6D634765744578742E436D0D
:1028C00064383A2025640A0D000000002DE9F84F15
:1028D00080460D46174615B14FF4006001E04FF4F5
:1028E000C060814615B14FF4C06001E04FF4006054
:1028F000824621E069464046FFF746F8044634B177
:10290000214616A0FDF7C2FC2046BDE8F88F0098CE
:1029100000F4807078B1009800F4F0564E4501D173
:102920000020F2E7564505D0314614A0FDF7AEFC75
:102930000520EAE702E000BF002FDBD100BF2946F7
:102940004046FFF7B9F90446082C00D125B11CB167
:10295000214613A0FDF79AFC2046D6E72D452D20F1
:102960004D6D6353656C656374436172642E436D92
:1029700064313320282564290A0D00002D452D20BF
:102980004D6D6353656C656374436172642C20778D
:10299000726F6E672073746174652025780A0D006C
:1029A0002D452D204D6D6353656C656374436172D5
:1029B000642E436D643720282564290A0D00000029
:1029C0002DE9FF5F04460E4691469A46DDF838B081
:1029D00094F8A20200F00600022801D1012000E0D4
:1029E0000020029094F8A20200F00600042801D111
:1029F000012000E0002007464FF000084FB16FF0C3
:102A00000041D4F88C02884201D3304600E07002C5
:102A100080460298C0B1D4F88C02401C08B93046F8
:102A200000E07002804694F8A502082803D094F8CC
:102A3000A502072808D1204603F0D0FC05461DB1A9
:102A4000284604B0BDE8F09FBBF1000F26D037B197
:102A500003AB4A4600212046FFF74EF8054600200A
:102A600003A943465246CDE9001049462046FFF7E8
:102A700000F805462DB129461BA0FDF707FC2846A6
:102A8000DFE7039820F4F85000282BD0039820F4B7
:102A9000F8511CA0FDF7FAFB0520D2E737B103ABD4
:102AA0004A4600212046FFF727F80546002003A9E3
:102AB00043465246CDE9001049462046FFF73BF811
:102AC00005460DB12846BCE714490398084048B1B3
:102AD000039800EA01034A46414611A0FDF7D6FBE0
:102AE0000520AEE72846ACE72D452D204D547261F8
:102AF0006E53746174652E436D6431383A202564D9
:102B00000A0D00002D452D20434D4431382E73749D
:102B100061743A20256C780A0D0000000020D8E688
:102B20002D452D20434D44323528307825782C20F2
:102B30002575292E737461743A2025780A0D0000DA
:102B400010B50B480068401C094908600948008816
:102B500000280CDD07480088401E80B20549088027
:102B600028B9002004F0E4F9002004F019FA10BD9F
:102B7000300040203400402000F01F02012191402D
:102B8000024A430942F823107047000080E200E047
:102B900000F01F02012191404209920002F1E0225F
:102BA000C2F800117047000010B5002807DA4A0784
:102BB000140E054A00F00F031B1FD45403E04A070C
:102BC000130E024A135410BD18ED00E000E400E0BB
:102BD000D0E9001251637047F8B504460D464AE04B
:102BE000607A072842D2DFE800F0040C141C242D80
:102BF0002E00A37A03F00102D4E9001000F083F85C
:102C000036E0A37A03F00102D4E9001000F08FF857
:102C10002EE0A37A03F00102D4E9001000F099F845
:102C200026E0A37A03F00102D4E9001000F0A3F833
:102C30001EE0207A00F0CEF8A27AD4E9001000F06D
:102C400035F815E000BFA07A00F001000090A67AE8
:102C5000C6F38003667A062E01D1012600E0002625
:102C60003246D4E9001000F03CF801E00020F8BD45
:102C700000BF0C346D1E002DB2D10120F7E70146D4
:102C8000487A052802D0487A062802D14868826B23
:102C900001E04868C26B0868104008B9002070471E
:102CA0000120FCE7D0E9001211637047416402F093
:102CB00001030BB1416600E0016602F00A030BB1AB
:102CC000016200E0416202F0020313B1C0F880101B
:102CD00004E002F008030BB1C0F884104161016008
:102CE000704710B5029C41640CB1416600E001667A
:102CF0000BB1016500E041650AB1016300E0416389
:102D00000161016010BD30B541640AB1416600E067
:102D10000166036F046F23EA01052C400467436FCB
:102D2000446F23EA01052C404467416030BD30B553
:102D300041640AB1416600E00166036F41EA0304A1
:102D40000467436F446F23EA01052C4044674160E8
:102D500030BD30B541640AB1416600E00166036FE1
:102D6000046F23EA01052C400467436F41EA030422
:102D70004467416030BD30B541640AB1416600E04E
:102D80000166036F41EA03040467436F41EA0304E9
:102D90004467416030BD00004FF480620C4B1A6004
:102DA00000BF0B4A121D126802F48062002AF8D19B
:102DB00040EA0102064B1B1F9A641A151A6000BFF5
:102DC000034A6432126802F48062002AF8D0704725
:102DD00004060E4010B504463F2C00D204E09E22AB
:102DE00012A119A0FDF7B4FB202C0ED219480068DF
:102DF0000121A14008400121A140884215D00120B5
:102E0000A0401449083908600FE0203C1148F03018
:102E100001680120A04001400120A040814204D06F
:102E20000120A0400B49E831086010BD2E2E5C53F4
:102E3000414D5C6C6962636869705C736F75726345
:102E4000655C706D632E630064774964203C2036B6
:102E50003300000018060E4010B50446402C00D286
:102E600004E0F5220AA111A0FDF772FB202C05D287
:102E7000144800680121A140084010BD1148F030FD
:102E80000068A4F1200101228A401040F5E700000B
:102E90002E2E5C53414D5C6C6962636869705C7393
:102EA0006F757263655C706D632E6300647749644F
:102EB000203C2049445F5045524950485F434F559C
:102EC0004E54000018060E402DE9F04F85B0044620
:102ED000894617469B464FF00008002694F8A20248
:102EE00000F00600022801D1012000E0002003903C
:102EF00094F8A20200F00600042801D1012000E0AD
:102F000000200290029850B16FF00041D4F88C027A
:102F1000884201D3484601E04FEA4920064603981B
:102F2000F0B1D4F88C02401C08B9484601E04FEAE1
:102F30004920064694F8A502082803D094F8A50273
:102F400007280DD1204603F049FA8046B8F1000F5A
:102F500003D0404605B0BDE8F08F062084F8A502F6
:102F6000BBF1000F1FD0002004AB32463946009061
:102F70002046FEF759FD8046B8F1000F05D04146C6
:102F800023A0FDF783F94046E4E7049820F4F850C5
:102F900038B1049820F4F85124A0FDF777F9052002
:102FA000D8E74046D6E704A84FF0000A019004F5A0
:102FB0001C75284603F053F91A2028831820A87698
:102FC0006E6101982861B4F89602A8810120E88119
:102FD000AF60C5F800A000221146204603F084F936
:102FE000009000988046B8F1000F01D04046B1E74C
:102FF00014490498084040B1049800EA010231469F
:1030000011A0FDF743F90520A4E74046A2E7000020
:103010002D452D2053696E676C6554782E436D6481
:1030200031373A2025640A0D000000002D452D207F
:10303000434D4431372E737461743A20256C780AFD
:103040000D0000000020D8E62D452D20434D4432D0
:10305000342830782578292E737461743A202578C5
:103060000A0D000010B500231B4C236000BF00BFF9
:1030700000BFBFF34F8F00BF00BF00BF231F186802
:10308000C0F34E3100BFC0F3C90200BF43F6E07386
:1030900003EA41134FF0404404EA827423430F4C87
:1030A000236000BF00BF131EA2F10102EED10B1E70
:1030B000A1F10101E7D100BF00BF00BFBFF34F8FF7
:1030C00000BF00BF00BF00BF00BF00BFBFF36F8FD6
:1030D00000BF00BF00BF10BD84ED00E06CEF00E05A
:1030E00030B50A460446202300BF00BF00BFBFF32F
:1030F0004F8F00BF00BF00BF03E00B4D2C601C448E
:10310000D21A002AF9DC00BF00BF00BFBFF34F8F07
:1031100000BF00BF00BF00BF00BF00BFBFF36F8F85
:1031200000BF00BF00BF30BD68EF00E030B50A4609
:103130000446202300BF00BF00BFBFF34F8F00BF76
:1031400000BF00BF03E00B4D2C601C44D21A002AC4
:10315000F9DC00BF00BF00BFBFF34F8F00BF00BF4F
:1031600000BF00BF00BF00BFBFF36F8F00BF00BF35
:1031700000BF30BD68EF00E010B500231B4C23609A
:1031800000BF00BF00BFBFF34F8F00BF00BF00BF35
:10319000231F1868C0F34E3100BFC0F3C90200BF3F
:1031A00043F6E07303EA41134FF0404404EA8274AB
:1031B00023430F4C236000BF00BF131EA2F1010286
:1031C000EED10B1EA1F10101E7D100BF00BF00BF8E
:1031D000BFF34F8F00BF00BF00BF00BF00BF00BFE5
:1031E000BFF36F8F00BF00BF00BF10BD84ED00E0D4
:1031F00074EF00E010B50023234C236000BF00BF34
:1032000000BFBFF34F8F00BF00BF00BF231F186870
:10321000C0F34E3100BFC0F3C90200BF43F6E073F4
:1032200003EA41134FF0404404EA82742343174CED
:10323000236000BF00BF131EA2F10102EED10B1EDE
:10324000A1F10101E7D100BF00BF00BFBFF34F8F65
:1032500000BF00BF00BF0C4B703B1B6843F48033C2
:10326000094C703C236000BF00BF00BFBFF34F8F0D
:1032700000BF00BF00BF00BF00BF00BFBFF36F8F24
:1032800000BF00BF00BF10BD84ED00E060EF00E0B4
:1032900010B500231B4C236000BF00BF00BFBFF36D
:1032A0004F8F00BF00BF00BF231F1868C0F34E310F
:1032B00000BFC0F3C90200BF43F6E07303EA411345
:1032C0004FF0404404EA827423430F4C236000BF54
:1032D00000BF131EA2F10102EED10B1EA1F10101EC
:1032E000E7D100BF00BF00BFBFF34F8F00BF00BFDB
:1032F00000BF00BF00BF00BFBFF36F8F00BF00BFA4
:1033000000BF10BD84ED00E060EF00E030B50A467C
:103310000446202300BF00BF00BFBFF34F8F00BF94
:1033200000BF00BF03E00B4D2C601C44D21A002AE2
:10333000F9DC00BF00BF00BFBFF34F8F00BF00BF6D
:1033400000BF00BF00BF00BFBFF36F8F00BF00BF53
:1033500000BF30BD5CEF00E030B50A4604462023D4
:1033600000BF00BF00BFBFF34F8F00BF00BF00BF53
:1033700003E00B4D2C601C44D21A002AF9DC00BF7C
:1033800000BF00BFBFF34F8F00BF00BF00BF00BF33
:1033900000BF00BFBFF36F8F00BF00BF00BF30BDD5
:1033A0005CEF00E02DE9F04104460F4615461E464D
:1033B000276066600020A06084F8A452204602F0D6
:1033C00055FFBDE8F081000070B504460D46164675
:1033D000034B324629462046FFF7E4FF70BD00004C
:1033E000980240202DE9FE430646894617461C46B2
:1033F000DDF8288006B105E040F654321FA12AA06E
:10340000FDF7A6F896F8A20200F00800002831D0D7
:10341000B8F1000F02D10920BDE8FE8324E00020AE
:10342000029002AA38467F1C0023CDE900024A46DA
:1034300019463046FEF7F4FB054614B1029804F82D
:10344000010B2DB129461BA0FCF720FF0520E3E767
:10345000029800F4306038B1424639461CA0029B05
:10346000FCF714FF0520D7E7B8F10000A8F1010828
:10347000D5D101E00C20CFE70020CDE72E2E5C5304
:10348000414D5C6C696273746F726167656D6564F0
:1034900069615C736F757263655C73646D6D635CA9
:1034A00073646D6D632E630070536420213D204E64
:1034B000554C4C002D452D20494F5F526444697294
:1034C0006563742E436D6435323A2025640A0D001D
:1034D0002D452D2052445F444952454354282575BB
:1034E0002C202575292073742025780A0D000000F2
:1034F000F8B50446204602F0B9FE834800906946BC
:10350000204602F0BEFC00BF04F51C76304602F0F7
:10351000A6FE0120308300221146204602F0E4FE80
:10352000074600BF3D462DB1294678A0FCF7AEFE08
:103530002846F8BD204600F05FFE05462DB129461D
:1035400078A0FCF7A3FE2846F3E7204600F032FD02
:1035500005462DB129467AA0FCF798FE2846E8E7F3
:1035600094F8A20202280BD101022046FEF745FA88
:1035700005462DB1294672A0FCF788FE2846D8E7FB
:103580004FF40070A4F89602062084F8A50294F87F
:10359000A20200F00600042840D14FF41970005B2D
:1035A000C0F3012081024FF41970005D01EB80012E
:1035B0004FF41A700059032202EA9070084440F652
:1035C000FF7188422AD194F8F41094F8F50001EBC9
:1035D000002194F8F60001EB004194F8F70001EBAC
:1035E0000060C4F89002D4F89002B0F5000F03D93F
:1035F000101FC4F88C026EE094F8F41094F8F500F3
:1036000001EB002194F8F60001EB004194F8F7007B
:1036100001EB00604002C4F88C025CE094F8A20266
:1036200000F00600022822D10321D4F8600201EA4A
:103630009070E0B14FF40070A4F894024FF4197048
:10364000005D01044FF41A700059000E01EB0021D7
:103650004FF41A700059C0F307400844401C800220
:10366000C4F890024FF0FF30C4F88C0233E094F8B5
:10367000A20200F0060070B34FF40070A4F89402A8
:103680004FF41970005BC0F3012081024FF41970F0
:10369000005D01EB80014FF41A700059032202EA29
:1036A00090700844401C4FF41A710959C1F3C2319B
:1036B000891C01228A4050434FF419710959C1F302
:1036C0000342012191404843C4F88C02D4F88C0293
:1036D000400AC4F8900294F8A20208B9082028E72A
:1036E000E06800906946204602F0CBFB4FF47A7107
:1036F0000098B0FBF1F6314617A0FCF7C7FD009823
:10370000C4F89802002014E7801A06002D452D20E9
:1037100053445F496E69742E506F774F4E3A25645B
:103720000A0D00002D452D2053445F496E69742E0B
:103730004964656E746966793A2025640A0D000053
:103740002D452D2053445F496E69742E456E756D6D
:103750003A2025640A0D00002D492D205365742060
:1037600053442F4D4D4320636C6F636B20746F2067
:1037700025754B0A0D0000002DE9F84304460F465D
:1037800015461E46DDE9088904B105E040F6E81259
:103790000DA118A0FCF7DCFE05B105E040F6E9122A
:1037A00009A117A0FCF7D4FE00BF00BF082084F8D1
:1037B000A5020120B2B22B46394600902046FFF701
:1037C000FFF80020BDE8F8832E2E5C53414D5C6C61
:1037D000696273746F726167656D656469615C735A
:1037E0006F757263655C73646D6D635C73646D6D3E
:1037F000632E630070536420213D204E554C4C00D5
:10380000704461746120213D204E554C4C000000F5
:103810002DE9F04706460F4614461D464FF00008B6
:10382000A14606B105E040F62A2215A11FA0FCF72B
:103830008FFE04B105E040F62B2211A11EA0FCF77B
:1038400087FE05B105E040F62C220DA11EA0FCF775
:103850007FFE0DE001234A4639463046FFF734FB30
:103860008046B8F1000F00D006E07F1C09F5007912
:10387000281EA5F10105EDD100BF4046BDE8F08747
:103880002E2E5C53414D5C6C696273746F7261677C
:10389000656D656469615C736F757263655C7364A3
:1038A0006D6D635C73646D6D632E63007053642093
:1038B000213D204E554C4C00704461746120213DE7
:1038C000204E554C4C0000006E62426C6F636B736F
:1038D00020213D20300000002DE9F04104460D4636
:1038E0001646162748F20220206025B16800B6FB74
:1038F000F0F0606001E0002060603846FFF76AFA8F
:10390000BDE8F0810161426170478161C261704729
:103910000221016070474FF400710160704701217E
:10392000016070474FF48071016070472DE9F041EC
:1039300005460E4605F51C74204602F090FC0D204D
:10394000A0761620208326614020A0810120E081FE
:1039500005F50870A06000221146284602F0C4FC5C
:1039600007463846BDE8F0812DE9F04106460D4690
:1039700006F51C74204602F072FC2920A076322045
:10398000208328686061256100221146304602F0DC
:10399000ABFC07463846BDE8F0812DE9F04105460D
:1039A0000E46174605F51C74204602F058FC06200A
:1039B000A0761220208327616661002211462846E6
:1039C00002F092FC80464046BDE8F0812DE9F047C8
:1039D00007460C469046994607F51C7607B105E068
:1039E0004FF4217226A131A0FCF7B2FD04B105E02D
:1039F00040F2852222A12EA0FCF7AAFD304602F05B
:103A00002EFC25460620B076162030832868C00F8D
:103A1000C0072968090E40EA81702968C1F3035183
:103A200040EA01502968C1F3034140EA0140298876
:103A3000C1F3033140EA01302988C1F3032140EA90
:103A400001202978C1F3031140EA0110297801F01F
:103A50000F0108437061B8F1000F05D04020B0811C
:103A60000120F081C6F80880C6F8109000221146A7
:103A7000384602F039FC82465046BDE8F087000027
:103A80002E2E5C53414D5C6C696273746F7261677A
:103A9000656D656469615C736F757263655C7364A1
:103AA0006D6D635C73646D6D632E630070536400B1
:103AB000705377697463684172670000F8B5074610
:103AC0000D4607F51C74204602F0C9FB0820A076BD
:103AD0004FF4B9702083AA2040EA05206061C4F841
:103AE00010D000221146384602F0FEFB0646032E97
:103AF00000D1F8BD4EB90098C0F30B00AA2141EAED
:103B00000521884201D10020F3E70520F1E70000FC
:103B100038B50446B4F8A01201222046FEF7D6FEBE
:103B2000054625B129460BA0FCF7B0FB38BD694618
:103B30002046FDF735FCB4F8A01201222046FEF71E
:103B4000C5FE054625B1294602A0FCF79FFBEDE71F
:103B500000BFEBE72D452D2053644D6D63496E6921
:103B6000742E53656C43617264282564290A0D0024
:103B70002DE9F0470446042694F8A20200F006005E
:103B8000042801D1012000E00020074687B1D4F8C5
:103B90006002C0F38360042804D3204605F0C2FE0F
:103BA00006463BE01EA0FCF771FB0C20BDE8F08749
:103BB00094F8A20200F00800002801DD012000E0D6
:103BC0000020804694F8A20200F00600022801D1ED
:103BD000012000E000208146012E01D10C20E5E704
:103BE0000426B8F1000F00D00126B9F1000F0ED065
:103BF00031462046FDF744FC05462DB129460EA06E
:103C0000FCF744FB0520D1E714A0FCF73FFB84F848
:103C1000A3623146204602F023F900BF0020C5E729
:103C20002D572D204D4D4320312D626974206F6E2C
:103C30006C790A0D000000002D452D2053644D6D58
:103C40006353657442757357696474682E41636D7C
:103C500064363A2025640A0D000000002D572D20FF
:103C6000534420342D626974206D6F64650A0D0021
:103C70002DE9FE43044694F8A20200F00800002853
:103C800001DD012000E00020064694F8A20200F0C9
:103C90000600022801D1012000E00020074694F828
:103CA000A20200F00600042801D1012000E000205B
:103CB0008046204602F0C6F810B90C20BDE8FE830D
:103CC000B8F1000F39D00321D4F8600201EA9070F6
:103CD000022809D0D4F8600201EA9070022823D9A2
:103CE00094F8E20002281FDB94F8E40000F00200E0
:103CF000D0B152480068019002AA01A92046FEF7FF
:103D00004BFD05462DB129464DA0FCF7BFFA052015
:103D1000D4E753490298084028B152A00299FCF711
:103D2000B5FA0C20CAE704E054A0FCF7AFFA0C2067
:103D3000C4E75AA0FCF7AAFA7AE0002E37D0002098
:103D4000029002A8132100231A46CDE9001019465B
:103D50002046FDF765FF05462DB1294655A0FCF725
:103D600095FA0520AAE7029800F0010020B959A0B1
:103D7000FCF78CFA0C20A1E70220029002A8132184
:103D800001230022CDE9001019462046FDF748FF27
:103D900005462DB1294658A0FCF778FA05208DE795
:103DA000029800F0020010B15BA0FCF76FFA002F40
:103DB0003ED00321D4F8600201EA907000282FD091
:103DC0001E48001D0068019002AB594A01A9204617
:103DD000FFF7FCFD05461DB9029800F0800020B1F8
:103DE00054A0FCF753FA052068E751480069C0F376
:103DF00003600F2804D154A0FCF748FA0C205DE7BB
:103E00004B48C0694FF6FF7101EA104020B155A040
:103E1000FCF73CFA022051E757A0FCF737FA07E01D
:103E20002068C0F3036159A0FCF730FA0C2045E785
:103E30000121204602F03CF800203FE744BA42004E
:103E40002D452D2053644D6D63456E61626C654850
:103E5000532E436D64363A2025640A0D000000009D
:103E60008020D8022D452D204D6D63205377697435
:103E700063682048533A2025780A0D002D492D20EB
:103E80004D4D4320776974686F75742048532073D3
:103E90007570706F72740A0D000000002D572D2090
:103EA0004D4D4320485320456E61626C65640A0D98
:103EB000000000002D452D2053644D6D63456E615B
:103EC000626C6548532E436D6435323A2025640A8E
:103ED0000D0000002D492D204853204D6F646520B2
:103EE0006E6F7420737570706F7274656420627980
:103EF000205344494F0A0D002D452D2053644D6D2C
:103F000063456E61626C6548532E436D64353220A3
:103F1000483A2025640A0D002D572D205344494F5F
:103F200020485320456E61626C65640A0D000000F4
:103F3000204D40202D452D205344204853204661DC
:103F4000696C0A0D000000002D572D2053442048B5
:103F500053204E6F7420537570706F727465640ACD
:103F60000D0000002D452D205344204853204C6F58
:103F7000636B65640A0D00002D492D2053442048D1
:103F80005320456E61626C65640A0D002D492D2039
:103F90004853204E6F7420537570706F727465644F
:103FA00020696E2053442052657620307825780AA7
:103FB0000D0000002DE9FC5F04464FF0000A0020D0
:103FC00001908146009094F8A20200F006000028BB
:103FD00001DD012000E00020064694F8A20200F076
:103FE0000800002801DD012000E000208046EEB13D
:103FF00000BF04F51C77384602F031F94FF4917098
:1040000038830220B87604F110003861002211468E
:10401000204602F069F983465D4600BF35B1294666
:1040200046A0FCF733F92846BDE8FC9F2046FDF783
:10403000A7FD05462DB1294647A0FCF727F92846DC
:10404000F2E756B12046FDF757FE05462DB1294649
:1040500048A0FCF71BF92846E6E7B4F8A0120022B6
:104060002046FEF733FC05462DB1294648A0FCF753
:104070000DF92846D8E70323206803EA907294F8E4
:10408000A2124AA0FCF702F901221146204600F0D4
:1040900011FAB8F1000F03D0204600F0B9FA8246B9
:1040A0001EB1204600F040FB0190B8F1000F08D08F
:1040B0003EB10198824501D9019800E05046E06088
:1040C00008E0B8F1000F02D0C4F80CA002E00EB175
:1040D0000198E0604FF47A71E0684843E060204660
:1040E000FFF746FD054615B90120009007E00C2DAD
:1040F00005D0294637A0FCF7C9F8052094E72046EB
:10410000FFF7B6FD054615B94FF0010903E00C2D88
:1041100001D0052088E7B9F1000F02D0E068400027
:10412000E060009810B9B9F1000F04D000224946B0
:10413000204600F0BFF9002076E700002D452D2035
:1041400053644D6D63496E69742E636D6432282526
:1041500064290A0D000000002D452D2053644D6D8B
:1041600063496E69742E636D6433282564290A0DD2
:10417000000000002D452D2053644D6D63496E698C
:10418000742E636D6439282564290A0D000000002F
:104190002D452D2053644D6D63496E69742E536512
:1041A0006C43617264282564290A0D002D492D2075
:1041B0004361726420547970652025752C20435327
:1041C000445F5354525543545552452025750A0DAA
:1041D000000000002D452D2053646D6D63456E7504
:1041E0006D2E4465736964654275735769647468BC
:1041F0003A2025640A0D00002DE9FF4705460027F7
:104200000026B0464FF00109002003900021284607
:1042100001F04EFE0121284601F022FE0820029006
:1042200002A8062100231A46CDE9001001212846E4
:10423000FDF7F6FC04461CB9029800F4306000B1AA
:1042400000BF0121284600F0A5FA044601212846B6
:10425000FFF734FC044614B94FF001080DE0032CBD
:1042600007D0214655A0FCF711F8052004B0BDE8A1
:10427000F0874FF4FA50FDF765FD0020029002A987
:104280002846FDF7B3FC044624B1214653A0FBF7B2
:10429000FDFF2BE0029800F04050002826D042F2AB
:1042A000107A00BF554902980840029002A928469A
:1042B000FDF79CFC0446029800F0004000B105E0C8
:1042C00024B9BAF10000AAF1010AEBD100BF2CB168
:1042D00021464BA0FBF7DAFF0520C7E7012650A0D7
:1042E000FBF7D4FF0298C0F3C06900BFB9F1000F1B
:1042F00044D003AA41462846FDF778F80446002C2E
:1043000031D042F2107A0A21284600F043FA0446DE
:104310002CB1214645A0FBF7B9FF0520A6E70120F7
:10432000039000BF03A92846FDF7E6FA044624B12E
:10433000BAF10000AAF1010AF4D12CB1214644A03F
:10434000FBF7A4FF052091E79DF80C0018B10520AC
:1043500085F8A20202E0042085F8A20244A0FBF73F
:1043600095FF002082E79DF80C0018B144A0FBF7F0
:104370008DFF02E046A0FBF789FF01274FB91EB170
:10438000082085F8A20216E045A0FBF77FFF052074
:104390006CE746B19DF80C0008B10B2000E00A2044
:1043A00085F8A20207E09DF80C0008B1032000E0A8
:1043B000022085F8A202002058E700002D452D209C
:1043C00053644D6D634964656E746966792E436DFF
:1043D00064383A2025640A0D000000002D492D2084
:1043E00053644D6D634964656E746966792E436DDF
:1043F00064353A2025640A0D000000000080FF00AB
:104400002D452D2053644D6D634964656E74696656
:10441000792E436D643520563A2025640A0D00003C
:104420002D492D205344494F0A0D00002D452D20C4
:1044300053644D6D634964656E746966792E4D6D84
:10444000632E537752657365743A2025640A0D0014
:104450002D452D2053644D6D634964656E74696606
:10446000792E436D64313A2025640A0D0000000066
:104470002D492D204D4D4320436172640A0D0000EB
:104480002D492D2053444843204D454D0A0D000031
:104490002D492D205344204D454D0A0D00000000AC
:1044A0002D452D20556E6B6E6F776E2063617264A3
:1044B0000A0D00002DE9F04105460E461746D6B11B
:1044C000012200212846FEF701FA4FF44870FDF75B
:1044D00039FC2846FDF710FC04462CB1214611A0FA
:1044E000FBF7D4FEBDE8F081B5F8A0120122284602
:1044F000FEF7ECF9044697B195F8A20200F0060029
:10450000022802D0042808D103E02846FFF700FB68
:1045100004E02846FEF7B0F900E000BF00BF00BF8E
:10452000E0E700002D452D2053644D6D6355706408
:10453000617465496E666F2E436D64392028256469
:10454000290A0D002DE9FF4F83B00E4691461F4604
:10455000DDF840A034464FF00008C346002001902B
:1045600035E0032002AB2246002100900398FEF7BD
:1045700039FF05463DB129461CA0FBF787FE2846BA
:1045800007B0BDE8F08F9DF80800FF2800D121E0BA
:104590009DF80800202803D148F00108A34609E04F
:1045A0009DF80800222805D19DF80A0010B948F0AE
:1045B000020801949DF8090000B90BE09DF809007C
:1045C000801C044406EB0900A04200D202E0B8F1CE
:1045D000030FC6D100BF0FB1C7F800B0BAF1000F8A
:1045E00002D00198CAF800000020C9E72D452D200F
:1045F0005364696F46696E645475706C65732E52AE
:10460000644469726563743A2025640A0D000000F1
:104610007FB5054600260020039095F8A20200F021
:104620000800002832D0032003AB092200210090AB
:104630002846FEF7D7FE044634B1214614A0FBF706
:1046400025FE204604B070BD03A800234FF48072FD
:10465000009028460399FFF775FF04462CB12146C8
:1046600017A0FBF713FE2046ECE7039870B1062075
:1046700001AB009000212846039AFEF7B3FE9DF897
:1046800009001B4A1B4900F037F806463046D9E7B7
:104690002D452D205364696F5570646174654361C5
:1046A0007264496E666F726D6174696F6E2E5264CA
:1046B0004469726563743A2025640A0D00000000A5
:1046C0002D452D205364696F557064617465436195
:1046D0007264496E666F726D6174696F6E2E4669A1
:1046E0006E645475706C653A2025640A0D000000F4
:1046F0009CB9420080B94200F0B5034603F00705BB
:1047000051F8250008B90020F0BDC3F3C30452F8E6
:10471000240008B90020F7E751F8250052F824706A
:1047200000FB07F63046EFE770B50446002594F825
:1047300060120DA0FBF7AAFD94F8A20200F006009B
:1047400078B194F8A21201F00601022901D10E49B4
:1047500000E00E490A4694F860020D49FFF7CCFFCD
:104760000546284670BD00002D492D20202E5452AC
:10477000414E5F53504545442020202020202020DA
:1047800020307825580D0A009CB94200DCB942005F
:1047900080B942002DE9F04704460E464FF000086C
:1047A000002717E04FF0000904F51C75284601F0BA
:1047B00056FD02202883C5F8149000221146204699
:1047C00001F092FD824600BFD046B8F1030F00D041
:1047D00002E07F1CB742E5D300BF4046BDE8F0874A
:1047E00010B5FEF7ADF910BD2F48006840F4700019
:1047F0002D4908602D482E4908602E48006800F0B9
:10480000807050B92C482B49086000BF29484830B7
:10481000006800F001000028F8D028482549086009
:1048200000BF24484830006800F480300028F8D0E9
:1048300020481030006820F00300401C1D49103152
:10484000086000BF1B484830006800F008000028DE
:10485000F8D01B4817490831086000BF1548483098
:10486000006800F002000028F8D040F21110114951
:104870001031086000BF0F484830006800F00800A1
:104880000028F8D04FF489700A491031086000BF41
:1048900008484830006800F008000028F8D00948AF
:1048A000094908607047000088ED00E00005000439
:1048B000000C0E4020060E40090837000908370199
:1048C000013F2F20000E2707000040200148024929
:1048D0000860704701474E52000007400148006DD4
:1048E000704700000000074070B51F4800F05DF8F9
:1048F000054605F0010098B11B4818300068C6B2A3
:104900001A4804882046611C8CB219490E54FF2CA9
:1049100000DD002417480088844201D01348048039
:1049200005F00200F8B1144800781449097888426B
:1049300012D0114801780078401C0F4A10701048BE
:10494000405C09491C31086010460078FF280ADDE8
:1049500000201146087006E000200A490870002176
:10496000014800F02CF870BD001C0E4050004020A3
:10497000204A4020520040204D0040204C00402062
:10498000204940204E00402010B54FF4D6740460FA
:104990004FF0FF34C4604160B3FBF2F424090462B9
:1049A0005024046010BD816070470146486970471B
:1049B00011B11022026001E020220260704711B1A3
:1049C0004022026001E080220260704770B51E48FC
:1049D00000F065F8054605F0010090B11A488069BD
:1049E000C6B21A4804882046611C8CB218490E547D
:1049F000FF2C00DD002417480088844201D01348B2
:104A0000048005F00200F0B11348007813490978DA
:104A1000884211D0124801780078401C104A10706A
:104A20001048405C0849C8610B480078FF280ADD3F
:104A300000200949087006E000200B490870002199
:104A4000014800F0B2F870BD00C00240580040209C
:104A5000204C40205A004020550040205400402067
:104A60004D004020204B4020560040202DE9F041D1
:104A700004460D4616461F464FF4D67020604FF090
:104A8000FF30E06065603B4632460021204600F082
:104A900009F850202060BDE8F08181607047014630
:104AA000486970472DE9F05F04460E461746984660
:104AB0004FF00A0A0026606800F4807000283BD19D
:104AC000606800F00400042804D0606800F006006C
:104AD000062806D1206C7843B8FBF0F54FF00009AA
:104AE0002AE025E0F800C6F102014843B8FBF0F5E2
:104AF000C6F102007843B8FBF0F0A0EBC50909EB62
:104B0000C500B8FBF0F0C6F10201B0FBF1FB642078
:104B10007843B0FBFBF0C0F1640ABAF1050F07D986
:104B2000701CC6B2022E03DB14A0FBF7AFFB02E041
:104B3000BAF1050FD6D800BF606800F00E000E284D
:104B400005D0606800F48070B0F5807F09D160689E
:104B500000F0300028B9B8FBF7F5B8FBF7F0A0EB90
:104B60000509A8B24FF4E02101EA09410843206297
:104B7000606840EAC6406060BDE8F09F2D452D208A
:104B800043616E6F6E74207365742074686973205E
:104B90006261756472617465200A0D0011B11022A2
:104BA000026001E020220260704711B140220260E1
:104BB00001E080220260704770B504460D4604B1E2
:104BC00004E0B42207A10FA0FBF7C2FC182D00DA05
:104BD00004E0B52203A10DA0FBF7BAFC0120A84018
:104BE000206270BD2E2E5C53414D5C6C696263681F
:104BF00069705C736F757263655C78646D61632E58
:104C0000630000007058646D616300006368616E4A
:104C10006E656C203C2058444D41435F4348414EF3
:104C20004E454C5F4E554D0070B504460D46164638
:104C300004B105E04FF4A57209A111A0FBF788FCAF
:104C4000182D00DA05E040F24B1205A10EA0FBF78B
:104C50007FFC04F1500000EB8510466070BD000041
:104C60002E2E5C53414D5C6C6962636869705C73A5
:104C70006F757263655C78646D61632E630000001C
:104C80007058646D616300006368616E6E656C20CE
:104C90003C2058444D41435F4348414E4E454C5F94
:104CA0004E554D0070B504460D4604B104E06B222C
:104CB00003A10BA0FBF74CFC0120A840206170BDB4
:104CC0002E2E5C53414D5C6C6962636869705C7345
:104CD0006F757263655C78646D61632E63000000BC
:104CE0007058646D6163000070B504460D4604B1F0
:104CF00004E09B2207A10FA0FBF72AFC182D00DA85
:104D000004E09C2203A10DA0FBF722FC0120A84097
:104D1000E06170BD2E2E5C53414D5C6C696263682E
:104D200069705C736F757263655C78646D61632E26
:104D3000630000007058646D616300006368616E19
:104D40006E656C203C2058444D41435F4348414EC2
:104D50004E454C5F4E554D0070B504460D46164607
:104D600004B105E040F23B1209A111A0FBF7F0FBF2
:104D7000182D00DA05E04FF49E7205A10EA0FBF796
:104D8000E7FB04F1500000EB8510066070BD0000E9
:104D90002E2E5C53414D5C6C6962636869705C7374
:104DA0006F757263655C78646D61632E63000000EB
:104DB0007058646D616300006368616E6E656C209D
:104DC0003C2058444D41435F4348414E4E454C5F63
:104DD0004E554D0070B504460D4604B104E05F2207
:104DE00003A10BA0FBF7B4FB0120A840E06070BD5D
:104DF0002E2E5C53414D5C6C6962636869705C7314
:104E00006F757263655C78646D61632E630000008A
:104E10007058646D6163000070B505460C4605B1BD
:104E200005E04FF4B27209A110A0FBF791FB182C1A
:104E300000DA05E040F2651204A10EA0FBF788FB42
:104E400005F1500000EB8410C06870BD2E2E5C533D
:104E5000414D5C6C6962636869705C736F75726305
:104E6000655C78646D61632E630000007058646D4A
:104E7000616300006368616E6E656C203C2058447D
:104E80004D41435F4348414E4E454C5F4E554D00AA
:104E900070B505460C4605B105E040F2571209A170
:104EA00010A0FBF755FB182C00DA05E04FF4AC72AC
:104EB00004A10EA0FBF74CFB05F1500000EB8410A1
:104EC000806870BD2E2E5C53414D5C6C69626368D6
:104ED00069705C736F757263655C78646D61632E75
:104EE000630000007058646D616300006368616E68
:104EF0006E656C203C2058444D41435F4348414E11
:104F00004E454C5F4E554D0010B5044604B104E0CB
:104F1000812203A10AA0FBF71BFBA06910BD0000C2
:104F20002E2E5C53414D5C6C6962636869705C73E2
:104F30006F757263655C78646D61632E6300000059
:104F40007058646D6163000010B5044604B104E05C
:104F5000CF2203A10AA0FBF7FBFA606A10BD000094
:104F60002E2E5C53414D5C6C6962636869705C73A2
:104F70006F757263655C78646D61632E6300000019
:104F80007058646D6163000070B504460D4604B14D
:104F900005E04FF4B9720DA114A0FBF7D9FA182D52
:104FA00000DA05E040F2731208A112A0FBF7D0FA74
:104FB00004F1500000EB8510C66804F1500000EBCE
:104FC000851080680640304670BD00002E2E5C5370
:104FD000414D5C6C6962636869705C736F75726384
:104FE000655C78646D61632E630000007058646DC9
:104FF000616300006368616E6E656C203C205844FC
:105000004D41435F4348414E4E454C5F4E554D0028
:1050100010B5044604B104E03D2203A10AA0FBF749
:1050200097FA206810BD00002E2E5C53414D5C6C39
:105030006962636869705C736F757263655C7864DC
:105040006D61632E630000007058646D6163000041
:1050500010B5024800F036FC10BD0000600440208E
:1050600070B504460D46164604B105E04FF4E772EC
:105070000AA112A0FBF76CFA182D00DA05E040F245
:10508000CF1206A10FA0FBF763FAC6F30B0104F1E0
:10509000500000EB8510416270BD00002E2E5C5365
:1050A000414D5C6C6962636869705C736F757263B3
:1050B000655C78646D61632E630000007058646DF8
:1050C000616300006368616E6E656C203C2058442B
:1050D0004D41435F4348414E4E454C5F4E554D0058
:1050E00070B504460D46164604B105E04FF4EE7265
:1050F00009A111A0FBF72CFA182D00DA05E040F207
:10510000DD1205A10EA0FBF723FA04F1500000EB1D
:105110008510866270BD00002E2E5C53414D5C6C84
:105120006962636869705C736F757263655C7864EB
:105130006D61632E630000007058646D6163000050
:105140006368616E6E656C203C2058444D41435F3E
:105150004348414E4E454C5F4E554D0070B5044698
:105160000D46164604B105E040F2F91209A111A05E
:10517000FBF7EEF9182D00DA05E04FF4FD7205A1FA
:105180000EA0FBF7E5F904F1500000EB8510C662B4
:1051900070BD00002E2E5C53414D5C6C69626368EB
:1051A00069705C736F757263655C78646D61632EA2
:1051B000630000007058646D616300006368616E95
:1051C0006E656C203C2058444D41435F4348414E3E
:1051D0004E454C5F4E554D002DE9F04104460D46BD
:1051E00017461E4604B105E04FF4D1720FA117A077
:1051F000FBF7AEF9022E00DA05E040F2A3120BA194
:1052000014A0FBF7A5F9182D00DA05E04FF4D272CF
:1052100006A113A0FBF79CF927F00300304304F12B
:10522000500101EB85118861BDE8F0812E2E5C53A1
:10523000414D5C6C6962636869705C736F75726321
:10524000655C78646D61632E630000007058646D66
:10525000616300006E64616966203C2032000000DA
:105260006368616E6E656C203C2058444D41435F1D
:105270004348414E4E454C5F4E554D0070B5044677
:105280000D46164604B105E04FF4D97209A111A0EC
:10529000FBF75EF9182D00DA05E040F2B31205A124
:1052A0000EA0FBF755F904F1500000EB8510C66124
:1052B00070BD00002E2E5C53414D5C6C69626368CA
:1052C00069705C736F757263655C78646D61632E81
:1052D000630000007058646D616300006368616E74
:1052E0006E656C203C2058444D41435F4348414E1D
:1052F0004E454C5F4E554D0070B504460D46164662
:1053000004B105E040F2911209A111A0FBF720F9C8
:10531000182D00DA05E04FF4C97205A10EA0FBF7C5
:1053200017F904F1500000EB8510466170BD0000D4
:105330002E2E5C53414D5C6C6962636869705C73CE
:105340006F757263655C78646D61632E6300000045
:105350007058646D616300006368616E6E656C20F7
:105360003C2058444D41435F4348414E4E454C5FBD
:105370004E554D0070B504460D46164604B105E085
:1053800040F217220AA112A0FBF7E2F8182D00DA6A
:1053900005E04FF4067206A10FA0FBF7D9F826F03E
:1053A0007F4104F1500000EB8510416370BD0000A7
:1053B0002E2E5C53414D5C6C6962636869705C734E
:1053C0006F757263655C78646D61632E63000000C5
:1053D0007058646D616300006368616E6E656C2077
:1053E0003C2058444D41435F4348414E4E454C5F3D
:1053F0004E554D0070B504460D46164604B105E005
:105400004FF4E0720AA112A0FBF7A2F8182D00DAFF
:1054100005E040F2C11206A10FA0FBF799F826F0B3
:105420007F4104F1500000EB8510016270BD000067
:105430002E2E5C53414D5C6C6962636869705C73CD
:105440006F757263655C78646D61632E6300000044
:105450007058646D616300006368616E6E656C20F6
:105460003C2058444D41435F4348414E4E454C5FBC
:105470004E554D0070B504460D46164604B105E084
:1054800040F2831209A111A0FBF762F8182D00DA8F
:1054900005E04FF4C27205A10EA0FBF759F804F124
:1054A000500000EB8510066170BD00002E2E5C538D
:1054B000414D5C6C6962636869705C736F7572639F
:1054C000655C78646D61632E630000007058646DE4
:1054D000616300006368616E6E656C203C20584417
:1054E0004D41435F4348414E4E454C5F4E554D0044
:1054F00070B504460D46164604B105E04FF402723D
:105500000AA112A0FBF724F8182D00DA05E040F2FA
:10551000092206A10FA0FBF71BF826F07F4104F13A
:10552000500000EB8510016370BD00002E2E5C530F
:10553000414D5C6C6962636869705C736F7572631E
:10554000655C78646D61632E630000007058646D63
:10555000616300006368616E6E656C203C20584496
:105560004D41435F4348414E4E454C5F4E554D00C3
:10557000F8B504460D4616464FF6FF7778110090B1
:105580006A46012104F5C47003F028F93246294621
:10559000204600F007F8074604F5C47002F063FDEA
:1055A0003846F8BD2DE9F04105460E461746FF2E58
:1055B00005D0FF2F03D04FF6FF70BDE8F081FF2F1D
:1055C0000AD1304600F0EAFB30B92B492BA0FAF79C
:1055D0005DFE4FF6FF70F0E7FF2E0AD1384600F06F
:1055E000DDFB30B9244925A0FAF750FE4FF6FF70D5
:1055F000E3E7002435E0281D00EB0410C07B70BBFE
:105600000121281D00EB0410C173281D00EB0410BC
:105610004672281D00EB041087720021304600F00E
:1056200091FB291D01EB0411C8720121304600F0E5
:1056300089FB291D01EB041108730021384600F095
:1056400081FB291D01EB041148730121384600F04C
:1056500079FB291D01EB04118873E0B2ADE7FFE788
:10566000641C95F88501A042C5D803490AA0FAF741
:105670000DFE4FF6FF70A0E750BA42002D452D20D9
:1056800025733A3A20416C6C6F636174696F6E20C8
:105690006661696C656400002D452D2025733A3ADA
:1056A00020416C6C6F636174696F6E206661696C18
:1056B00065642C20616C6C206368616E6E656C7330
:1056C00020617265206F6363757069656400000016
:1056D0002DE9F05F0546884614461E46DDE90AB905
:1056E00008F0FF0705B105E04FF4D37248A150A0C0
:1056F000FAF72EFF95F88501B84202DC0420BDE8D8
:10570000F09FD5F800A039465046FFF785FB281DCD
:1057100000EB0710C07B08B90420F0E7281D00EB60
:105720000710C07B022801D10320E8E706F0010042
:1057300088B306F0180070B939465046E268FFF7A2
:10574000CFFC394650466268FFF794FE3946504612
:10575000A268FFF7D1FD06F01800082804D13946E9
:105760005046E268FFF7BCFC00235A4639465046D3
:10577000FFF732FDF2B239465046FFF77FFDFF22B8
:1057800039465046FFF750FA09F0FF0239465046B5
:10579000FFF7E2FA3AE0FFE7394650466268FFF762
:1057A00069FE39465046A268FFF7A6FD39465046C5
:1057B0002268FFF71FFE208A82B239465046FFF763
:1057C0004FFC394650466269FFF7C8FC39465046DF
:1057D000A269FFF78DFE39465046E269FFF7CAFD20
:1057E00039465046E268FFF77BFC00231A463946EB
:1057F0005046FFF7F1FC002239465046FFF73EFDC8
:1058000009F0FF0239465046FFF7A6FA002076E776
:105810002E2E5C53414D5C6C6962636869705C73E9
:105820006F757263655C78646D61642E630000005F
:105830007058646D616420213D204E554C4C000031
:1058400070B504460E46F5B204B104E0CF2211A1B2
:1058500018A0FAF77DFE94F88501A84201DC042027
:1058600070BD201D00EB0510C07B06280FD2DFE8BD
:1058700000F00E030405070800BF00BF0320EFE798
:1058800000BF0021201D00EB0510C17300BF00BF49
:105890000020E5E72E2E5C53414D5C6C6962636825
:1058A00069705C736F757263655C78646D61642E9A
:1058B000630000007058646D616420213D204E55E6
:1058C0004C4C00002DE9F05F06464FF0000B06B18E
:1058D00005E040F2371233A13AA0FAF739FED6F8C4
:1058E00000A05046FFF710FB804628F07F400028BC
:1058F00056D05046FFF728FB814600254CE001209A
:10590000A84000EA080000B944E0301D00EB05148F
:10591000E07B08B9BDE8F09F0120A84000EA09003B
:1059200018BB4FF0000B29465046FFF72DFB0746EA
:1059300007F0010050B129465046FFF7A9FA00F0E0
:10594000020018B90420E0734FF0010B07F00200C9
:1059500018B10420E0734FF0010B07F0040078B198
:105960000420E0734FF0010B0AE029465046FFF790
:1059700053FA00F0010018B12846D4E900219047FD
:10598000BBF1000F05D0206818B12846D4E90021EA
:10599000904700BF681CC5B296F88501A842AEDCEE
:1059A00000BFB7E72E2E5C53414D5C6C69626368A3
:1059B00069705C736F757263655C78646D61642E89
:1059C0006300000070446D616420213D204E554C01
:1059D0004C000000F8B504460E4640F2FF700090FF
:1059E00004B104E091222DA134A0FAF7B1FD6A467A
:1059F000012104F5C47002F0F1FE3248007820B1B4
:105A000004F5C47002F02FFBF8BD2F48206084F825
:105A10008661012084F884012B48FFF7F9FA00F031
:105A20001F00401C84F88501002529E00021201D6D
:105A300000EB05100160201D00EB05104160201DEA
:105A400000EB05100172201D00EB05104172201DB6
:105A500000EB05108172201D00EB0510C172201DA6
:105A600000EB05100173201D00EB05104173201D94
:105A700000EB05108173201D00EB0510C1736D1C38
:105A800094F88501A842D1D801200E49087004F588
:105A9000C47002F0E8FA00BFB6E700002E2E5C5397
:105AA000414D5C6C6962636869705C736F757263A9
:105AB000655C78646D61642E630000007058646DED
:105AC000616400008D024020008007402DE9F04114
:105AD00004460E46F5B2276804B105E040F20D1207
